:020000040800F2
:1000000000C00020F13F0008D53F0008D73F00089E
:10001000D93F0008DB3F0008DD3F0008000000007A
:10002000000000000000000000000000DF3F0008AA
:10003000E13F000800000000E33F0008E53F000842
:1000400039400008394000083940000839400008AC
:10005000394000083940000839400008394000089C
:10006000394000083940000839400008C937000805
:10007000394000083940000839400008394000087C
:10008000394000083940000839400008394000086C
:10009000394000083940000839400008394000085C
:1000A000394000083940000839400008394000084C
:1000B000394000083940000839400008394000083C
:1000C000394000083940000839400008394000082C
:1000D000394000083940000839400008394000081C
:1000E000394000083940000839400008394000080C
:1000F00039400008394000083940000839400008FC
:1001000039400008394000083940000839400008EB
:1001100039400008394000083940000839400008DB
:1001200039400008394000083940000839400008CB
:1001300000000000000000000000000000000000BF
:1001400000000000000000000000000000000000AF
:10015000000000000000000000000000000000009F
:10016000000000000000000000000000000000008F
:10017000000000000000000000000000000000007F
:10018000000000000000000000000000000000006F
:10019000000000000000000000000000000000005F
:1001A000000000000000000000000000000000004F
:1001B000000000000000000000000000000000003F
:1001C000000000000000000000000000000000002F
:1001D000000000000000000000000000000000001F
:0401E0005FF8E0F1F3
:1001E80010B5054C237833B9044B13B10448AFF369
:1001F80000800123237010BD88000020000000004B
:10020800D048000808B5034B1BB103490348AFF3B6
:10021800008008BD000000008C000020D0480008C5
:10022800034613F8012B002AFBD1181A013870472E
:1002380081F0004102E000BF83F0004330B54FEA8F
:1002480041044FEA430594EA050F08BF90EA020FFC
:100258001FBF54EA000C55EA020C7FEA645C7FEA8F
:10026800655C00F0E2804FEA5454D4EB5555B8BFB2
:100278006D420CDD2C4480EA020281EA030382EA23
:10028800000083EA010180EA020281EA0303362DB5
:1002980088BF30BD11F0004F4FEA01314FF4801C88
:1002A8004CEA113102D0404261EB410113F0004F9A
:1002B8004FEA03334CEA133302D0524263EB430351
:1002C80094EA050F00F0A780A4F10104D5F1200EEF
:1002D8000DDB02FA0EFC22FA05F2801841F100014A
:1002E80003FA0EF2801843FA05F359410EE0A5F11E
:1002F80020050EF1200E012A03FA0EFC28BF4CF04F
:10030800020C43FA05F3C01851EBE37101F0004504
:1003180007D54FF0000EDCF1000C7EEB00006EEB11
:100328000101B1F5801F1BD3B1F5001F0CD349089B
:100338005FEA30004FEA3C0C04F101044FEA4452F2
:1003480012F5800F80F09A80BCF1004F08BF5FEA79
:10035800500C50F1000041EB045141EA050130BD59
:100368005FEA4C0C404141EB010111F4801FA4F1FC
:100378000104E9D191F0000F04BF01460020B1FA51
:1003880081F308BF2033A3F10B03B3F120020CDA89
:100398000C3208DD02F1140CC2F10C0201FA0CF067
:1003A80021FA02F10CE002F11402D8BFC2F1200CCC
:1003B80001FA02F120FA0CFCDCBF41EA0C01904082
:1003C800E41AA2BF01EB0451294330BD6FEA0404CB
:1003D8001F3C1CDA0C340EDC04F11404C4F12002B6
:1003E80020FA04F001FA02F340EA030021FA04F3C8
:1003F80045EA030130BDC4F10C04C4F1200220FA1F
:1004080002F001FA04F340EA0300294630BD21FA5C
:1004180004F0294630BD94F0000F83F4801306BF22
:1004280081F480110134013D4EE77FEA645C18BF16
:100438007FEA655C29D094EA050F08BF90EA020FAD
:1004480005D054EA000C04BF1946104630BD91EAA5
:10045800030F1EBF0021002030BD5FEA545C05D1A8
:100468004000494128BF41F0004130BD14F58004E7
:100478003CBF01F5801130BD01F0004545F0FE415B
:1004880041F470014FF0000030BD7FEA645C1ABF90
:10049800194610467FEA655C1CBF0B46024650EAC7
:1004A800013406BF52EA033591EA030F41F40021F3
:1004B80030BD00BF90F0000F04BF0021704730B579
:1004C8004FF4806404F132044FF000054FF000014E
:1004D80050E700BF90F0000F04BF0021704730B50F
:1004E8004FF4806404F1320410F0004548BF4042E4
:1004F8004FF000013EE700BF42004FEAE2014FEA39
:1005080031014FEA02701FBF12F07F4393F07F4F13
:1005180081F06051704732F07F4208BF704793F016
:100528007F4F04BF41F40021704730B54FF4607429
:1005380001F0004521F000411CE700BF50EA01022C
:1005480008BF704730B54FF000050AE050EA0102D5
:1005580008BF704730B511F0004502D5404261EB45
:1005680041014FF4806404F132045FEA915C3FF486
:10057800D8AE4FF003025FEADC0C18BF03325FEA23
:10058800DC0C18BF033202EBDC02C2F1200300FAD4
:1005980003FC20FA02F001FA03FE40EA0E0021FAF9
:1005A80002F11444BDE600BF70B54FF0FF0C4CF4E7
:1005B800E06C1CEA11541DBF1CEA135594EA0C0F99
:1005C80095EA0C0F00F0DEF82C4481EA030621EAD4
:1005D8004C5123EA4C5350EA013518BF52EA03350F
:1005E80041F4801143F4801338D0A0FB02CE4FF0C1
:1005F8000005E1FB02E506F00042E0FB03E54FF0F1
:100608000006E1FB03569CF0000F18BF4EF0010EE8
:10061800A4F1FF04B6F5007F64F5407404D25FEAE4
:100628004E0E6D4146EB060642EAC62141EA555197
:100638004FEAC52040EA5E504FEACE2EB4F1FD0CD9
:1006480088BFBCF5E06F1ED8BEF1004F08BF5FEA57
:10065800500E50F1000041EB045170BD06F0004609
:1006680046EA010140EA020081EA0301B4EB5C04B6
:10067800C2BFD4EB0C0541EA045170BD41F48011AE
:100688004FF0000E013C00F3AB8014F1360FDEBFD3
:10069800002001F0004170BDC4F10004203C35DAAF
:1006A8000C341BDC04F11404C4F1200500FA05F332
:1006B80020FA04F001FA05F240EA020001F00042D3
:1006C80021F0004110EBD37021FA04F642EB060149
:1006D8005EEA430E08BF20EAD37070BDC4F10C0473
:1006E800C4F1200500FA04F320FA05F001FA04F237
:1006F80040EA020001F0004110EBD37041F1000123
:100708005EEA430E08BF20EAD37070BDC4F120052D
:1007180000FA05F24EEA020E20FA04F301FA05F295
:1007280043EA020321FA04F001F0004121FA04F23D
:1007380020EA020000EBD3705EEA430E08BF20EA0D
:10074800D37070BD94F0000F0FD101F00046400047
:1007580041EB010111F4801F08BF013CF7D041EAC9
:10076800060195F0000F18BF704703F000465200CD
:1007780043EB030313F4801F08BF013DF7D043EA9E
:100788000603704794EA0C0F0CEA135518BF95EA54
:100798000C0F0CD050EA410618BF52EA4306D1D1DB
:1007A80081EA030101F000414FF0000070BD50EAFA
:1007B800410606BF1046194652EA430619D094EA84
:1007C8000C0F02D150EA013613D195EA0C0F05D16E
:1007D80052EA03361CBF104619460AD181EA0301C2
:1007E80001F0004141F0FE4141F470014FF000007A
:1007F80070BD41F0FE4141F4780170BD70B54FF015
:10080800FF0C4CF4E06C1CEA11541DBF1CEA135594
:1008180094EA0C0F95EA0C0F00F0A7F8A4EB050476
:1008280081EA030E52EA03354FEA013100F088806D
:100838004FEA03334FF0805545EA131343EA126336
:100848004FEA022245EA111545EA10654FEA0026EB
:100858000EF000419D4208BF964244F1FD0404F5A4
:10086800407402D25B084FEA3202B61A65EB030500
:100878005B084FEA32024FF480104FF4002CB6EBBD
:10088800020E75EB030E22BFB61A754640EA0C003D
:100898005B084FEA3202B6EB020E75EB030E22BF7D
:1008A800B61A754640EA5C005B084FEA3202B6EBBE
:1008B800020E75EB030E22BFB61A754640EA9C007D
:1008C8005B084FEA3202B6EB020E75EB030E22BF4D
:1008D800B61A754640EADC0055EA060E18D04FEA0B
:1008E800051545EA16754FEA06164FEAC30343EAAB
:1008F80052734FEAC2025FEA1C1CC0D111F4801F78
:100908000BD141EA00014FF000004FF0004CB6E770
:1009180011F4801F04BF01430020B4F1FD0C88BF0F
:10092800BCF5E06F3FF6AFAEB5EB030C04BFB6EB1A
:10093800020C5FEA500C50F1000041EB045170BD0D
:100948000EF0004E4EEA113114EB5C04C2BFD4EB3A
:100958000C0541EA045170BD41F480114FF0000EBE
:10096800013C90E645EA060E8DE60CEA135594EA3A
:100978000C0F08BF95EA0C0F3FF43BAF94EA0C0F3D
:100988000AD150EA01347FF434AF95EA0C0F7FF4B2
:1009980025AF104619462CE795EA0C0F06D152EA06
:1009A80003353FF4FDAE1046194622E750EA4106EA
:1009B80018BF52EA43067FF4C5AE50EA41047FF4FB
:1009C8000DAF52EA43057FF4EBAE12E74FF0FF3C60
:1009D80006E000BF4FF0010C02E000BF4FF0010C31
:1009E8004DF804CD4FEA410C7FEA6C5C4FEA430CAA
:1009F80018BF7FEA6C5C1BD001B050EA410C0CBFF9
:100A080052EA430C91EA030F02BF90EA020F00205A
:100A1800704710F1000F91EA030F58BF994208BFC1
:100A280090422CBFD8176FEAE37040F0010070477E
:100A38004FEA410C7FEA6C5C02D150EA013C07D1D5
:100A48004FEA430C7FEA6C5CD6D152EA033CD3D020
:100A58005DF8040B704700BF8446104662468C461A
:100A68001946634600E000BF01B5FFF7B7FF00284D
:100A780048BF10F1000F01BD4DF808EDFFF7F4FF76
:100A88000CBF012000205DF808FB00BF4DF808ED01
:100A9800FFF7EAFF34BF012000205DF808FB00BF24
:100AA8004DF808EDFFF7E0FF94BF012000205DF846
:100AB80008FB00BF4DF808EDFFF7CEFF94BF0120FB
:100AC80000205DF808FB00BF4DF808EDFFF7C4FFF4
:100AD80034BF012000205DF808FB00BF4FEA410247
:100AE800B2F1E04324BFB3F5001CDCF1FE5C0DD984
:100AF80001F0004C4FEAC0024CEA5070B2F1004FCE
:100B080040EB830008BF20F00100704711F0804FD0
:100B180021D113F13872BCBF01F00040704741F495
:100B280080114FEA5252C2F11802C2F1200C10FA99
:100B38000CF320FA02F018BF40F001004FEAC1237D
:100B48004FEAD32303FA0CFC40EA0C0023FA02F321
:100B58004FEA4303CCE77FEA625307D150EA0133F7
:100B68001EBF4FF0FE4040F44000704701F00040C7
:100B780040F0FE4040F40000704700BF80F00040A5
:100B880002E000BF81F0004142001FBF5FEA41035D
:100B980092EA030F7FEA226C7FEA236C6AD04FEA5D
:100BA8001262D2EB1363C1BFD218414048404140A2
:100BB800B8BF5B42192B88BF704710F0004F40F454
:100BC800000020F07F4018BF404211F0004F41F470
:100BD800000121F07F4118BF494292EA030F3FD03C
:100BE800A2F1010241FA03FC10EB0C00C3F120034F
:100BF80001FA03F100F0004302D5494260EB4000DE
:100C0800B0F5000F13D3B0F1807F06D340084FEA48
:100C1800310102F10102FE2A51D2B1F1004F40EB3D
:100C2800C25008BF20F0010040EA030070474900A5
:100C380040EB000010F4000FA2F10102EDD1B0FA70
:100C480080FCACF1080CB2EB0C0200FA0CF0AABF65
:100C580000EBC25052421843BCBFD0401843704703
:100C680092F0000F81F4000106BF80F40000013209
:100C7800013BB5E74FEA41037FEA226C18BF7FEAE0
:100C8800236C21D092EA030F04D092F0000F08BF22
:100C98000846704790EA010F1CBF0020704712F009
:100CA8007F4F04D1400028BF40F00040704712F148
:100CB80000723CBF00F50000704700F0004343F0AD
:100CC800FE4040F4000070477FEA226216BF0846E3
:100CD8007FEA23630146420206BF5FEA412390EAA6
:100CE800010F40F4800070474FF0000304E000BF9C
:100CF80010F0004348BF40425FEA000C08BF70474D
:100D080043F0964301464FF000001CE050EA010210
:100D180008BF70474FF000030AE000BF50EA010225
:100D280008BF704711F0004302D5404261EB410112
:100D38005FEA010C02BF84460146002043F0B64337
:100D480008BFA3F18053A3F50003BCFA8CF2083A5C
:100D5800A3EBC25310DB01FA02FC634400FA02FC65
:100D6800C2F12002BCF1004F20FA02F243EB02006C
:100D780008BF20F00100704702F1200201FA02FCCE
:100D8800C2F1200250EA4C0021FA02F243EB0200C1
:100D980008BF20EADC7070474FF0FF0C1CEAD05205
:100DA8001EBF1CEAD15392EA0C0F93EA0C0F6FD0C6
:100DB8001A4480EA010C400218BF5FEA41211ED0A4
:100DC8004FF0006343EA501043EA5111A0FB013190
:100DD8000CF00040B1F5000F3EBF490041EAD37165
:100DE8005B0040EA010062F17F02FD2A1DD8B3F1E1
:100DF800004F40EBC25008BF20F00100704790F050
:100E0800000F0CF0004C08BF49024CEA502040EAA1
:100E180051207F3AC2BFD2F1FF0340EAC250704767
:100E280040F400004FF00003013A5DDC12F1190FA5
:100E3800DCBF00F000407047C2F10002410021FA17
:100E480002F1C2F1200200FA02FC5FEA310040F12F
:100E5800000053EA4C0308BF20EADC70704792F0A8
:100E6800000F00F0004C02BF400010F4000F013AE0
:100E7800F9D040EA0C0093F0000F01F0004C02BFDB
:100E8800490011F4000F013BF9D041EA0C018FE74A
:100E98000CEAD15392EA0C0F18BF93EA0C0F0AD050
:100EA80030F0004C18BF31F0004CD8D180EA010076
:100EB80000F00040704790F0000F17BF90F0004F0F
:100EC800084691F0000F91F0004F14D092EA0C0FF1
:100ED80001D142020FD193EA0C0F03D14B0218BF84
:100EE800084608D180EA010000F0004040F0FE40CA
:100EF80040F40000704740F0FE4040F44000704766
:100F08004FF0FF0C1CEAD0521EBF1CEAD15392EAE4
:100F18000C0F93EA0C0F69D0A2EB030280EA010CD4
:100F280049024FEA402037D04FF0805343EA11116D
:100F380043EA10130CF000408B4238BF5B0042F1CB
:100F48007D024FF4000C8B4224BF5B1A40EA0C0070
:100F5800B3EB510F24BFA3EB510340EA5C00B3EBA2
:100F6800910F24BFA3EB910340EA9C00B3EBD10F90
:100F780024BFA3EBD10340EADC001B0118BF5FEAE2
:100F88001C1CE0D1FD2A3FF650AF8B4240EBC2500B
:100F980008BF20F0010070470CF0004C4CEA5020CC
:100FA8007F32C2BFD2F1FF0340EAC250704740F41B
:100FB80000004FF00003013A37E792F0000F00F00D
:100FC800004C02BF400010F4000F013AF9D040EA8B
:100FD8000C0093F0000F01F0004C02BF490011F41F
:100FE800000F013BF9D041EA0C0195E70CEAD15317
:100FF80092EA0C0F08D142027FF47DAF93EA0C0FFE
:101008007FF470AF084676E793EA0C0F04D14B02E1
:101018003FF44CAF08466EE730F0004C18BF31F093
:10102800004CCAD130F000427FF45CAF31F000438D
:101038007FF43CAF5FE700BF4FF0FF3C06E000BF26
:101048004FF0010C02E000BF4FF0010C4DF804CD49
:101058004FEA40024FEA41037FEA226C18BF7FEA59
:10106800236C11D001B052EA530C18BF90EA010F5B
:1010780058BFB2EB030088BFC81738BF6FEAE170EA
:1010880018BF40F0010070477FEA226C02D15FEA86
:10109800402C05D17FEA236CE4D15FEA412CE1D0F2
:1010A8005DF8040B704700BF844608466146FFE7B9
:1010B8000FB5FFF7C9FF002848BF10F1000F0FBD9B
:1010C8004DF808EDFFF7F4FF0CBF012000205DF894
:1010D80008FB00BF4DF808EDFFF7EAFF34BF012019
:1010E80000205DF808FB00BF4DF808EDFFF7E0FFB2
:1010F80094BF012000205DF808FB00BF4DF808ED03
:10110800FFF7D2FF94BF012000205DF808FB00BF65
:101118004DF808EDFFF7C8FF34BF012000205DF847
:1011280008FB00BF4FEA4002B2F1FE4F0FD34FF069
:101138009E03B3EB12620DD94FEA002343F000433C
:1011480010F0004F23FA02F018BF404270474FF0EA
:101158000000704712F1610F01D1420205D110F071
:10116800004008BF6FF0004070474FF00000704724
:1011780082B0084B1B68084AA2FB03235B0A00FBEA
:1011880003F0019000BF019B5A1E0192002BF9D178
:1011980002B0704700000020D34D621070B582B0D5
:1011A8000446036813F0010F2CD0AB4B5B6803F0C7
:1011B8000C03042B1DD0A84B5B6803F00C03082B11
:1011C80012D06368B3F5803F41D0002B55D103F1AD
:1011D800804303F504331A6822F480321A601A68CF
:1011E80022F480221A6037E09B4B5B6813F4803F3F
:1011F800E7D0994B1B6813F4003F03D06368002BBA
:1012080000F0AE81236813F0020F76D0924B5B6832
:1012180013F00C0F5FD0904B5B6803F00C03082BA6
:1012280054D02369002B00F08A808C4B01221A606D
:1012380000F0F8FF0546884B1B6813F0020F75D1C4
:1012480000F0F0FF401B0228F5D903208BE1824A09
:10125800136843F480331360636843B300F0E2FF1C
:1012680005467D4B1B6813F4003FCBD100F0DAFF35
:10127800401B6428F5D9032075E1B3F5A02F09D0E8
:10128800754B1A6822F480321A601A6822F4802298
:101298001A60E1E703F18043A3F53C331A6842F48E
:1012A80080221A601A6842F480321A60D4E700F08B
:1012B800B9FF0546684B1B6813F4003FA2D000F045
:1012C800B1FF401B6428F5D903204CE1624B5B68F1
:1012D80013F4803FA5D1604B1B6813F0020F04D0B4
:1012E8002369012B01D001203DE15B4A136823F0FB
:1012F800F803616943EAC1031360236813F0080F18
:1013080032D0A369002B5BD0554B01221A6000F044
:1013180089FF0546504B5B6A13F0020F21D100F09C
:1013280081FF401B0228F5D903201CE14A4A1368B3
:1013380023F0F803616943EAC1031360DDE7474B13
:1013480000221A6000F06EFF0546434B1B6813F03D
:10135800020FD2D000F066FF401B0228F5D9032007
:1013680001E10120FFF704FF236813F0040F00F0E8
:101378009780394BDB6913F0805F33D1364BDA69DC
:1013880042F08052DA61DB6903F080530193019BDC
:101398000125344B1B6813F4807F25D0E368012BAB
:1013A80036D0002B4CD103F1804303F504331A6A7D
:1013B80022F001021A621A6A22F004021A622CE070
:1013C800274B00221A6000F02DFF0546224B5B6A6E
:1013D80013F0020FC8D000F025FF401B0228F5D9F2
:1013E8000320C0E00025D4E71E4A136843F4807345
:1013F800136000F017FF06461A4B1B6813F4807F32
:10140800CCD100F00FFF801B6428F5D90320AAE097
:10141800114A136A43F001031362E36873B300F0DF
:1014280001FF06460C4B1B6A13F0020F37D100F080
:10143800F9FE801B41F288339842F3D9032092E0E9
:10144800052B11D0044B1A6A22F001021A621A6A9B
:1014580022F004021A62E0E7001002400000424253
:101468008004424200700040414B1A6A42F0040274
:101478001A621A6A42F001021A62CEE700F0D2FE3E
:1014880006463B4B1B6A13F0020F08D000F0CAFE59
:10149800801B41F288339842F3D9032063E0E5B911
:1014A800E369002B5ED0324A526802F00C02082A27
:1014B8005BD0022B17D02F4B00221A6000F0B2FE2F
:1014C80004462B4B1B6813F0007F47D000F0AAFEA0
:1014D800001B0228F5D9032045E0254AD36923F0EB
:1014E8008053D361DCE7234B00221A6000F09AFE98
:1014F80005461F4B1B6813F0007F06D000F092FED4
:10150800401B0228F5D903202DE0236AB3F5803F5C
:101518001AD017494B6823F47413226A606A02438D
:1015280013434B60134B01221A6000F07BFE044604
:101538000F4B1B6813F0007F0ED100F073FE001BE9
:101548000228F5D903200EE0094A536823F4003332
:10155800A1680B435360DCE7002004E0002002E0B0
:10156800012000E0002002B070BD0120FBE700BFB1
:10157800001002406000424210B487B0164C94E854
:101588000F000DF1180C0CE90F00238AADF8043098
:10159800124B5B6803F00C02082A1AD1C3F383428A
:1015A800624412F8100C13F4803F05D10C4B03FB76
:1015B80000F007B010BC7047084B5B68C3F34043AA
:1015C800634413F8142C074BB3FBF2F300FB03F04E
:1015D800EFE70448EDE700BFE848000800100240C4
:1015E80000093D0000127A00594B1B6803F00703FD
:1015F8008B420CD2564A136823F007030B4313603F
:10160800136803F007038B4201D00120704770B5BF
:10161800036813F0020F06D04E4A536823F0F00314
:101628008468234353600C460546036813F0010F92
:1016380052D04368012B23D0022B28D0454A126888
:1016480012F0020F00F0828042494A6822F0030239
:1016580013434B6000F0E6FD06466B68012B1DD076
:10166800022B2AD03B4B5B6813F00C0F34D000F0F0
:10167800D9FD801B41F288339842F3D9032064E0F6
:10168800344A126812F4003FDED101205DE0314A8D
:10169800126812F0007FD7D1012056E02D4B5B680D
:1016A80003F00C03042B17D000F0BCFD801B41F2A3
:1016B80088339842F2D9032047E0264B5B6803F051
:1016C8000C03082B08D000F0ADFD801B41F28833D5
:1016D8009842F2D9032038E01D4B1B6803F007033A
:1016E800A3420CD91A4A136823F007032343136053
:1016F800136803F00703A34201D0012025E02B68FB
:1017080013F0040F06D0134A536823F4E063E96822
:101718000B4353602B6813F0080F07D00D4A53682A
:1017280023F46053296943EAC1035360FFF724FF98
:10173800084B5B68C3F30313074AD35CD840074BD5
:101748001860002000F03EFD002070BD0120FCE77D
:101758000020024000100240FC4800080000002061
:10176800014B1868704700BF0000002008B5FFF75C
:10177800F7FF044B5B68C3F30223034AD35CD840EA
:1017880008BD00BF001002400C49000808B5FFF76B
:10179800E7FF044B5B68C3F3C223034AD35CD8401A
:1017A80008BD00BF001002400C49000830B4036AAD
:1017B80023F001030362056A4268846924F0730414
:1017C8000B681C4325F002058B682B43104DA8427B
:1017D80003D005F50065A84205D123F00803CD68BC
:1017E8002B4323F004030A4DA84203D005F50065F6
:1017F800A84205D122F440724D6915438A692A43EB
:10180800426084614A684263036230BC704700BF2B
:10181800002C014030B4036A23F480730362036A26
:101828004268C46924F073040D682C4323F40073E0
:101838008D6843EA0523124DA84203D005F50065DB
:10184800A84206D123F40063CD6843EA052323F4B4
:1018580080630B4DA84203D005F50065A84207D167
:1018680022F440524D6942EA05128D6942EA051296
:101878004260C4614A68C263036230BC704700BFFB
:10188800002C014030B4036A23F480530362036AD6
:101898004468C26922F4E6420D6842EA052223F44C
:1018A80000538D6843EA0533094DA84203D005F576
:1018B8000065A84204D124F480444D6944EA8514A3
:1018C8004460C2614A680264036230BC704700BF6A
:1018D800002C014010B4036A046A24F00104046275
:1018E800846924F0F00444EA021223F00A030B434B
:1018F8008261036210BC704710B4036A23F01003BE
:1019080003628469036A24F4704444EA023223F0CF
:10191800A00343EA01138261036210BC704710B44C
:10192800846824F47F4442EA03230B4323438360FF
:1019380010BC704710B50468A26822F070024B68AA
:10194800134323F007030A681343A3604B68502B23
:101958001ED00AD9602B21D0702B05D10B698A685B
:10196800C9680068FFF7DBFF10BD402BFCD1036896
:101978001C6A1A6A22F001021A620268936923F04B
:10198800F003096943EA0113936103681C62EBE7FA
:101998000A6989680068FFF79DFFE5E70A698968B1
:1019A8000068FFF7A9FFDFE7704738B590F83C30CB
:1019B800012B18D00446012580F83C50022380F8FA
:1019C8003D30FFF7B7FF2268D36823F04003D360A8
:1019D8002268D36823F48043D36084F83D50002004
:1019E80084F83C0038BD0220FCE700000368244A64
:1019F800904212D002F5006290420ED0B0F1804FB2
:101A08000BD0A2F59832904207D002F5806290423E
:101A180003D002F58062904203D123F070034A6834
:101A28001343174A904212D002F5006290420ED03A
:101A3800B0F1804F0BD0A2F59832904207D002F552
:101A48008062904203D002F58062904203D123F471
:101A58004073CA68134323F080034A691343036041
:101A68008B68C3620B688362054B984203D003F509
:101A78000063984201D10B690363012343617047F6
:101A8800002C0140A8B110B5044690F83D305BB178
:101A9800022384F83D30211D2068FFF7A7FF0123AA
:101AA80084F83D30002010BD80F83C30FFF77CFF03
:101AB800EEE701207047000030B4036A23F01003FA
:101AC8000362036A4468826922F4E6420D6842EAC6
:101AD800052223F020038D6843EA0513114DA8421F
:101AE80003D005F50065A84206D123F08003CD6830
:101AF80043EA051323F040030A4DA84203D005F535
:101B08000065A84207D124F440644D6944EA85047D
:101B18008D6944EA8504446082614A68826303628D
:101B280030BC7047002C014038B590F83C30012B90
:101B380066D00D460446012380F83C30022380F825
:101B48003D300C2A1AD8DFE802F0071919192019B4
:101B580019193419191947000068FFF727FE226878
:101B6800936943F0080393612268936923F004039F
:101B780093612268936929690B439361012384F86F
:101B88003D30002084F83C0038BD0068FFF794FF22
:101B98002268936943F4006393612268936923F48C
:101BA8008063936122689369296943EA01239361F9
:101BB800E4E70068FFF72EFE2268D36943F00803C4
:101BC800D3612268D36923F00403D3612268D369FF
:101BD80029690B43D361D1E70068FFF753FE2268F8
:101BE800D36943F40063D3612268D36923F4806323
:101BF800D3612268D369296943EA0123D361BDE728
:101C08000220C1E710B4012303FA01F4036A23EAAE
:101C180004030362036A8A401343036210BC7047DB
:101C280010B5044601220068FFF7ECFF2368094A53
:101C3800934203D002F50062934203D15A6C42F4F6
:101C480000425A642268136843F0010313600020BD
:101C580010BD00BF002C014010B4042303FA01F4A6
:101C6800036A23EA04030362036A8A401343036294
:101C780010BC704710B5044604220068FFF7ECFF5B
:101C88002268536C43F4004353642268136843F09A
:101C980001031360002010BD90F83C30012B25D0C3
:101CA800012380F83C30CB6823F440738A681343DF
:101CB80023F480634A68134323F400630A681343D8
:101CC80023F480530A69134323F400534A691343E6
:101CD80023F480438A69134323F4004313430268BF
:101CE8005364002380F83C30184670470220704740
:101CF80090F83C30012B22D030B4012280F83C20EF
:101D0800022380F83D300468636823F07003636041
:101D1800046863680D682B4363600468A36823F054
:101D28008003A3600468A36849680B43A36080F834
:101D38003D20002380F83C30184630BC7047022014
:101D480070470000034690F82420012A20D0012281
:101D580080F824200268906810F0010F07D10D4820
:101D6800806810F0010F02D10B48824208D09A6AAD
:101D780042F020029A620120002283F82420704752
:101D8800506820F470200968014351600020F3E78F
:101D9800022070470028014000240140074AD36808
:101DA80023F4E0631B041B0C000200F4E0601843FA
:101DB80040F0BF6040F40030D060704700ED00E0B4
:101DC80030B4174BDB68C3F30223C3F10704042CB8
:101DD80028BF04241D1D062D18D9033B4FF0FF35DD
:101DE80005FA04F421EA0401994005FA03F322EA0A
:101DF8000303194300280BDB0901C9B200F1604055
:101E080000F5614080F8001330BC70470023E5E717
:101E180000F00F000901C9B2024B1954F4E700BFE2
:101E280000ED00E014ED00E000F01F02400901237E
:101E38009340024A42F82030704700BF00E100E0BA
:101E48000138B0F1807F0AD2064B5860064AF0216B
:101E580082F823100020986007221A60704701203A
:101E6800704700BF10E000E000ED00E0042805D056
:101E7800054A136823F0040313607047024A136885
:101E880043F004031360704710E000E0704708B5A2
:101E9800FFF7FCFF08BD0000F0B482B0002635460D
:101EA800ABE0002C63D0012C00D1CE68FF2B72D898
:101EB8008446FF2B72D8AC00DCF800200F27A7401F
:101EC80022EA070206FA04F42243CCF800204A6802
:101ED80012F0805F00F09080654A946944F0010434
:101EE8009461926902F001020192019AAC08A71C60
:101EF800604A52F827C005F0030297000F22BA4043
:101F08002CEA020C5C4A90424ED002F58062904264
:101F180000F08B8002F58062904200F0888002F524
:101F28008062904200F0858002F58062904200F065
:101F3800828002F58062904234D0062235E04F4F0D
:101F4800BC4214D00BD94E4FBC4210D007F5803795
:101F5800BC420CD0A7F58017BC42A7D107E0A7F573
:101F68008017BC4203D007F58037BC429ED18C68ED
:101F78007CB1012C08D04261082697E7CE68083664
:101F880094E7CE680C3691E7026108268EE70026B2
:101F98008CE704268AE700F1040C8AE7A5F1080417
:101FA800A40089E7052200E00022BA4042EA0C02B8
:101FB8000234304F47F824204A6812F4803F3CD05E
:101FC800304C22681A4322604A6812F4003F3AD023
:101FD8002C4C62681A4362604A6812F4801F38D039
:101FE800284CA2681A43A2604A6812F4001F36D02F
:101FF800244CE2681343E36001350F2D35D80122E4
:10200800AA400B6813409A42F6D14C68122CB8D0FB
:1020180095D8022CB2D07FF644AF032CB7D0112C40
:102028007FF444AFCE68043640E70122BDE70222C0
:10203800BBE70322B9E70422B7E7124C226822EA79
:1020480003022260C0E70F4C626822EA0302626062
:10205800C2E70C4CA26822EA0302A260C4E7094C5A
:10206800E26822EA0303E360C6E702B0F0BC704707
:10207800001002400000014000080140000021104B
:1020880000003110000401408368194201D100208A
:1020980070470120704712B9090401617047016156
:1020A8007047C3685940C1607047000070B582B07E
:1020B8000446036813F0010F34D03E4BDB6913F07C
:1020C800805F48D13B4BDA6942F08052DA61DB69C4
:1020D80003F080530193019B0125374B1B6813F4D0
:1020E800807F3AD0334B1B6A13F4407311D0626877
:1020F80002F440729A420CD02E4A136A23F44070BC
:102108002E4901260E6000260E60106213F0010FA2
:1021180037D1284A136A23F4407361680B4313626A
:10212800002D3FD1236813F0020F06D0214A5368CF
:1021380023F44043A1680B435360236813F0100F46
:1021480035D01C4A536823F4800361690B435360FC
:10215800002002B070BD0025BFE7174A136843F49A
:102168008073136000F05EF80646134B1B6813F487
:10217800807FB7D100F056F8801B6428F5D903207A
:10218800E7E700F04FF806460A4B1B6A13F0020F08
:10219800BFD100F047F8801B41F288339842F3D949
:1021A8000320D6E7D36923F08053D361BAE7002030
:1021B800CFE700BF001002400070004040044242D8
:1021C8007047000010B50446074B1868074BA3FB7F
:1021D80000308009FFF734FE002221464FF0FF301F
:1021E800FFF7EEFD002010BD00000020D34D621067
:1021F80008B5074A136843F0100313600320FFF77C
:10220800CDFD0020FFF7DEFFFFF7DAFF002008BD55
:1022180000200240024A136801331360704700BF70
:10222800D8000020014B1868704700BFD800002074
:1022380030B583B00190FFF7F5FF0546019CB4F176
:10224800FF3F00D00134FFF7EDFF401BA042FAD357
:1022580003B030BD7047000030B482B00023019352
:1022680090F82430012B00F08B800246012380F87F
:1022780024304B68062B29D80568686B03EB830369
:10228800053B1F249C4020EA04000C6804FA03F371
:1022980003436B630B68092B38D91568E86803EBAF
:1022A80043031E3B07249C4020EA04008C6804FA80
:1022B80003F30343EB600B68103B012B34D9002078
:1022C800002382F8243002B030BC70470C2B0ED8A3
:1022D8000568286B03EB8303233B1F249C4020EAFB
:1022E80004000C6804FA03F303432B63D2E7056880
:1022F800E86A03EB8303413B1F249C4020EA040067
:102308000C6804FA03F30343EB62C3E71568286912
:1023180003EB430307249C4020EA04008C6804FA7A
:1023280003F303432B61C6E713681648834205D0BD
:10233800936A43F0200393620120C1E7986810F480
:10234800000F1BD1986840F4000098600B68102BB0
:1023580001D00020B4E70C4B1B680C49A1FB031308
:102368009B0C03EB83035900019102E0019B013BA5
:102378000193019B002BF9D10020A1E700209FE7E2
:102388000220A0E7002401400000002083DE1B4358
:1023980030B583B00023019303689A6812F0010FE7
:1023A8002ED19A6842F001029A60174B1B68174AAF
:1023B800A2FB03239B0C019302E0019B013B0193C9
:1023C800019B002BF9D10446FFF72CFF0546236833
:1023D8009B6813F0010F11D1FFF724FF401B02285F
:1023E800F5D9A36A43F01003A362E36A43F001033B
:1023F800E362002384F82430012002E0002000E09A
:10240800002003B030BD00BF0000002083DE1B4366
:1024180090F82430012B6AD010B50446012380F8C7
:102428002430FFF7B5FF024600285BD1A36A23F4E6
:10243800407323F0010343F48073A36223682D499A
:102448008B4227D0A16A21F48011A162596811F446
:10245800806F05D0A16A21F4405141F48051A162F6
:10246800A16A11F4805F2BD0E16A21F00601E162D4
:10247800002184F824106FF002011960236899681C
:1024880001F46021B1F5602F1DD0996841F48011E5
:1024980099602AE0A1F58061496811F4702FD1D0C4
:1024A800A16A41F48011A1621349496811F4806F4F
:1024B800D6D0A16A21F4405141F48051A162CFE7FE
:1024C8000021E162D4E70B498B4204D0996841F4BA
:1024D800A001996009E0A1F58061496811F4702FA5
:1024E800D3D1F3E7002384F82430104610BD02222C
:1024F80010467047002801400024014038B50368A1
:102508009A6812F0010F01D1002038BD04469A687C
:1025180022F001029A60FFF785FE054623689B6852
:1025280013F0010F0ED0FFF77DFE401B0228F5D9EE
:10253800A36A43F01003A362E36A43F00103E36272
:102548000120E2E70020E0E7002800F08A8070B56B
:102558000446836A002B36D02046FFF7CFFFA36AD4
:1025680013F0100377D1002875D1A26A22F488529B
:1025780022F0020242F00202A262626825683A4929
:102588008D4226D0E1690A43E66842EA4602A1681C
:10259800B1F5807F27D0012922D06169012925D092
:1025A800696821F469410B436B6021688D682F4B82
:1025B8002B4013438B60A368B3F5807F27D0012B92
:1025C80025D0002126E0C36280F82430FFF742FEC0
:1025D800C2E7E169B1F5402FD5D14FF40021D2E728
:1025E8004FF48073D9E74FF48073D6E736B9A16901
:1025F800013943EA413343F40063D1E7A16A41F06A
:102608002001A162E16A41F00101E162C8E72369A2
:10261800013B19052568EB6A23F470030B43EB6251
:1026280023689968124B0B409A420BD0A36A23F097
:10263800120343F01003A362E36A43F00103E36269
:1026480001200DE00023E362A36A23F0030343F0B3
:102658000103A36204E0A36A43F01003A36201200C
:1026680070BD0120704700BF003C0140FDF7E1FF4D
:10267800FE0E1FFF2DE9F84305460268136923F48F
:102688004053C1680B43136183680269134342696D
:1026980013430168CA6822F4B05222F00C021343B3
:1026A800CB600268536923F4407381690B4353611B
:1026B8000268594B9A4257D0FFF758F800EB800050
:1026C80000EB80006C68A400B0FBF4F4534FA7FB48
:1026D800043464092601FFF749F800EB800000EB99
:1026E80080006C68A400B0FBF4F9FFF73FF800EB3A
:1026F800800000EB80006C68A400B0FBF4F4A7FB3A
:10270800043464094FF0640808FB1494240132343B
:10271800A7FB0434640904F0F0043444FFF726F8F6
:1027280000EB800000EB80006E68B600B0FBF6F6A8
:10273800FFF71CF800EB800000EB80006B689B0043
:10274800B0FBF3F0A7FB0030400908FB10684FEA24
:10275800081808F13208A7FB0837C7F343172B6896
:1027680027449F60BDE8F883FFF710F800EB80006E
:1027780000EB80006C68A400B0FBF4F4274FA7FBC3
:10278800043464092601FFF701F800EB800000EB30
:1027980080006C68A400B0FBF4F9FEF7F7FF00EBCB
:1027A800800000EB80006C68A400B0FBF4F4A7FB89
:1027B800043464094FF0640808FB1494240132348B
:1027C800A7FB0434640904F0F0043444FEF7DEFF88
:1027D80000EB800000EB80006E68B600B0FBF6F6F8
:1027E800FEF7D4FF00EB800000EB80006B689B00D5
:1027F800B0FBF3F0A7FB0030400908FB10684FEA74
:10280800081808F13208A7FB0837C7F343172B68E5
:1028180027449F60A6E700BF003801401F85EB51A1
:10282800704758B310B5044690F839300BB32423D9
:1028380084F839302268D36823F40053D3602046E3
:10284800FFF718FF2268136923F490431361226885
:10285800536923F02A0353612268D36843F4005371
:10286800D3600020E063202384F8393084F83A30BC
:1028780010BD80F83830FFF7D3FFD8E70120704744
:102888000F4B1A6842F001021A6059680D4A0A4053
:102898005A601A6822F0847222F480321A601A6828
:1028A80022F480221A605A6822F4FE025A604FF419
:1028B8001F029A60044B4FF000629A60704700BF95
:1028C800001002400000FFF800ED00E030B597B0BE
:1028D8001F4BDA6942F48022DA61DA6902F4802255
:1028E8000092009A5A6942F001025A615B6903F04A
:1028F80001030193019B174D06954FF4E1330793AC
:102908000024089409940A9408230B930C940D94BA
:1029180006A8FFF786FF6B6943F080036B614FF4ED
:1029280080630293012304930223039303230593F3
:1029380002A90948FFF7B0FA084B1C60084A9A60D8
:102948005C6090221A601C3B70225A6017B030BD40
:102958000010024000480040000C01401C000240EA
:10296800044800402DE9F04F89B07B4B9A6942F04A
:1029780004029A619A6902F004020192019A9A6922
:1029880042F008029A619A6902F008020292029AD9
:102998009A6942F010029A619B6903F0100303934D
:1029A800039B002305930693022707974FF0200AFD
:1029B8000DEB0A0444F810AD21466848FFF76CFA9D
:1029C8004023049321466548FFF766FA802504955D
:1029D80021466248FFF760FA4FF48063049321466A
:1029E8005F48FFF759FA4FF40063049321465C48A7
:1029F800FFF752FA4FF48056049621465848FFF7DD
:102A08004BFA049621465748FFF746FA04972146A1
:102A18005448FFF741FA4FF00108CDF814804FF001
:102A28000409CDF8109021464C48FFF735FA1026D6
:102A3800049621464B48FFF72FFACDF810A02146FF
:102A48004848FFF729FA03230593CDF8108021465B
:102A58004348FFF721FACDF8108021464148FFF797
:102A68001BFA4FF0080BCDF810B021463C48FFF791
:102A780013FA049721463A48FFF70EFA04962146BE
:102A88003748FFF709FACDF810A021463448FFF778
:102A980003FACDF8109021463148FFF7FDF9CDF83B
:102AA80010B021462F48FFF7F7F9CDF810902146CE
:102AB8002C48FFF7F1F9059740230493214628484D
:102AC800FFF7EAF9049521462548FFF7E5F94FF4A1
:102AD8008079CDF8109021462148FFF7DDF904955B
:102AE80021462048FFF7D8F9CDF8108021461B4829
:102AF800FFF7D2F9049721461848FFF7CDF9CDF82A
:102B0800109021461748FFF7C7F94FF40073049354
:102B180021461448FFF7C0F94FF480630493214617
:102B28001048FFF7B9F94FF40053049321460B48B6
:102B3800FFF7B2F94FF48043049321460748FFF7A3
:102B4800ABF94FF40043049321460448FFF7A4F976
:102B580009B0BDE8F08F00BF00100240000C014032
:102B680000100140000801402DE9F04F99B0754B65
:102B78009A6942F400629A619A6902F400620192C9
:102B8800019A9A6942F400529A619B6903F40053CE
:102B98000293029B6C4EDFF8B891C6F800900024AF
:102BA80074604FF02008C6F808804FF4FA6BC6F836
:102BB8000CB034617461B4613046FEF763FF1023D2
:102BC8001693179416A93046FFF792F860230F93CF
:102BD8001094119408271297139414944FF40073C7
:102BE800159322460FA93046FEF79EFF04220FA92F
:102BF8003046FEF799FF3A460FA93046FEF794FF94
:102C08004FF4006308934FF4806309930A94CDF856
:102C18002C800C940D940E940DEB08013046FFF7B0
:102C28003BF84A4DDFF82CA1C5F800A06C60C5F848
:102C38000880C5F80CB02C616C61AC612846FEF7C1
:102C480021FFCDF858808023179316A92846FFF74F
:102C58004FF8049418A9052341F8543D2846FEF777
:102C6800A4FE60230F931094119412971394149454
:102C78004FF40073159322460FA92846FEF754FF18
:102C880004220FA92846FEF74FFF3A460FA9284607
:102C9800FEF74AFF4FF4006308934FF480630993EB
:102CA8000A94CDF82C800C940D940E940DEB080129
:102CB8002846FEF7F1FFDAF8443023F40043CAF857
:102CC8004430D9F8443023F40043C9F8443021464D
:102CD8002846FEF7A5FF04212846FEF7A1FF39463E
:102CE8002846FEF79DFF21462846FEF7C3FF04212C
:102CF8002846FEF7BFFF39462846FEF7BBFF2146A8
:102D08003046FEF78DFF04213046FEF789FF39462D
:102D18003046FEF785FF21463046FEF7ABFF04211B
:102D28003046FEF7A7FF39463046FEF7A3FF2B686B
:102D380001221A633268136843F00103136019B063
:102D4800BDE8F08F00100240A401002034030020E9
:102D5800002C0140003401402DE9F04387B0414E7A
:102D6800B36943F40073B361B36903F40073009368
:102D7800009B3D4C3D4B23604FF48073A3600025BE
:102D8800E56065614FF44023E36165604FF0050835
:102D9800C4F810802046FFF7D7FB354A536843F440
:102DA8008023536006A94FF4C02341F8043D204610
:102DB800FEF7C8FF012304930E220292039302A98F
:102DC8002046FFF749FA02950227039702A92046F1
:102DD800FFF742FA04970B2702970323039302A9EC
:102DE8002046FFF739FA4FF00C09CDF80890042374
:102DF800039302A92046FFF72FFACDF80890CDF8E3
:102E08000C8002A92046FFF727FA23689A6842F443
:102E180080729A609A6842F001029A60736943F07E
:102E280001037361736903F001030193019B114B63
:102E38001D60C3F80480104A9A60104ADA6040F6B0
:102E4800A2221A601A6842F001021A602A4629462C
:102E58003846FEF7B5FF3846FEF7E6FF07B0BDE88F
:102E6800F08300BF001002406C02002000240140E3
:102E780000000140080002404C240140E00200200C
:102E8800F0B585B0274B9A6942F480629A619B69D4
:102E980003F480630093009B234C244B23604FF47E
:102EA8008073A3600023E36063614FF46022E261F2
:102EB8006360052626612046FFF746FB012303933E
:102EC8000F220192029301A92046FFF7C5F90D23AD
:102ED80001930225029501A92046FFF7BDF9039544
:102EE8000A2301930327029701A92046FFF7B4F9A3
:102EF8000195042302930DEB03012046FFF7ACF97B
:102F08000197029601A92046FFF7A6F923689A6857
:102F180042F480729A609A6842F001029A6005B0A1
:102F2800F0BD00BF00100240200100200028014031
:102F380070B5064600240CE0074D02232B70642070
:102F4800FFF776F900232B70C820FFF771F90134D9
:102F5800E4B2B442F0D370BDA400002030B597B0FD
:102F680002250C9501231093102311931395002427
:102F780014944FF4601315930CA8FEF70FF90F2360
:102F88000793089509944FF480630A930B94294694
:102F980007A8FEF729FB01954FF44043039301A8C6
:102FA800FFF784F8FEF7DCFB084BA3FB0030800931
:102FB800FEF746FF0420FEF759FF224621464FF050
:102FC800FF30FEF7FDFE17B030BD00BFD34D6210D5
:102FD8002DE9F04F83B0FFF70BF9B34CA36943F029
:102FE8000103A361A36903F001030193019B03207B
:102FF800FEF7D4FE002211466FF00B00FEF7E0FE4C
:10300800002211466FF00A00FEF7DAFE0022114690
:103018006FF00900FEF7D4FE002211466FF004009D
:10302800FEF7CEFE002211466FF00300FEF7C8FE41
:10303800002211466FF00100FEF7C2FE0022114681
:103048004FF0FF30FEF7BCFEFFF788FF636923F0FF
:1030580001036361FFF786FCFFF786FDFFF77CFE3F
:10306800FFF70EFFFFF732FC012220218F48FFF700
:1030780012F88F48FFF7CCF98E48FFF7C9F90824F2
:10308800002C06DB8C4B1C706420FFF7D1F8013C48
:10309800F6E7894B00221A70012204218748FEF7BF
:1030A800FAFF874B5C8A24B2DD892DB24FF4967003
:1030B800FFF7BEF840F6DC239D4201DD9C4208DCA8
:1030C80040F6DC239D4209DD0320FFF731FF03258D
:1030D80015E00420FFF72CFF042510E040F6DC2360
:1030E8009C4204DD0120FFF723FF012507E00220B1
:1030F800FFF71EFF022502E06420FFF799F8704BE6
:10310800DB899BB240F6DC229342F5D86C4B5B8A94
:103118009BB29342F0D86B4B01221A704FF0000B10
:10312800DA46002426465EE22046FDF7E1FD6649C0
:10313800FDF732FE04467B8AA3F5AF73B3F5346F0F
:1031480010DC7B8AB3F5AF7F2DD4788AA0F5AF70F9
:10315800FDF7CEFD5D49FDF7D3FE5D49FDF71CFE89
:10316800014600E05B492046FDF70CFD0446544B40
:10317800DB89A3F2771340F62732934215DC504BD4
:10318800DB89A3F27713002B6BDB4D4BD889A0F2B8
:103198007710FDF7ADFD5049FDF7B2FE4C49FDF73C
:1031A800FBFD014602E00021DDE74C492046FDF722
:1031B800EBFCFDF7B7FF04460023494A1360494A70
:1031C8001360B4F57A7F00F38E81474FA742B8BFEA
:1031D8002746464B1F6006F13203BB420BDD323EE9
:1031E800BE4208DA424B1B68042B04D8414B1F60CF
:1031F8007B42414A13605046FDF794FF0146002088
:1032080000F0AAFE5846FDF78DFF0146012000F0A8
:10321800A3FE3946022000F09FFE3946032000F045
:103228009BFE00F09FFE02212048FEF72DFF00289C
:1032380040F05C81314B1E6831493046FDF74AFF4A
:10324800002800F070812F493046FDF761FF002803
:1032580000F06981184B05221A702B4B08221A704E
:10326800B0E10021A2E72046FDF742FD1649FDF72F
:1032780093FD0446124B5B8AA3F5AF73B3F5346F25
:1032880046DC0F4B5B8AB3F5AF7F62D40C4B588A90
:10329800A0F5AF70FDF72CFD1C49FDF731FE0C4978
:1032A800FDF77AFD014634E00010024000080140B5
:1032B8006C02002020010020A4000020000C014026
:1032C800E0020020AC000020DBF97E3F4992244157
:1032D8001CD7A33B4733B33FA88302411800E03F04
:1032E800C4000020C800002018FCFFFF9003002045
:1032F80004000020C0000020BC00002008000020BE
:103308000000304200002842A500002029A51441F1
:1033180091492046FDF736FC0446904BDB89A3F221
:10332800771340F62732934215DC8C4BDB89A3F2E6
:103338007713002B1CDB894BD889A0F27710FDF797
:10334800D7FC8749FDF7DCFD8649FDF725FD0146D9
:1033580002E00021DDE784492046FDF715FCFDF772
:10336800E1FE04460023814A1360814A136028E77E
:103378000021F1E72046FDF7BBFC7E49FDF70CFD77
:103388000446764B5B8AA3F5AF73B3F5346F12DC52
:10339800724B5B8AB3F5AF7F2ED4704B588AA0F579
:1033A800AF70FDF7A5FC7449FDF7AAFD6D49FDF75F
:1033B800F3FC014600E071492046FDF7E3FB0446B3
:1033C800664BDB89A3F2771340F62732934215DC6C
:1033D800624BDB89A3F27713002B1CDB5F4BD88988
:1033E800A0F27710FDF784FC6549FDF789FD5D497A
:1033F800FDF7D2FC014602E00021DDE761492046E5
:10340800FDF7C2FBFDF78EFE04460023574A136002
:10341800574A1360D5E60021F1E75B495FE10021D7
:103428005DE12046FDF764FC5249FDF7B5FC044612
:103438004A4B5B8AA3F5AF73B3F5346F12DC474B85
:103448005B8AB3F5AF7F2ED4444B588AA0F5AF7092
:10345800FDF74EFC4849FDF753FD4249FDF79CFC3A
:10346800014600E045492046FDF78CFB04463B4BEE
:10347800DB89A3F2771340F62732934215DC374BEA
:10348800DB89A3F27713002B2BDB344BD889A0F20E
:103498007710FDF72DFC3D49FDF732FD3149FDF769
:1034A8007BFC014602E00021DDE737492046FDF7B5
:1034B8006BFBFDF737FE0446354F3868FDF71CF8FF
:1034C80023A3D3E90023FDF76FF8FDF707FB386066
:1034D8002F4B1868FDF726FE244B1860244B186004
:1034E8006FE60021E2E74FF47A7772E6294B002273
:1034F8001A7002212848FEF7C7FD0028F9D10024D8
:10350800264B1C70264B1C7005E0244B1C70642055
:10351800FEF78EFE0134072CF7DD002220211E481D
:10352800FEF7B9FDFEE71F493046FDF7D3FD002839
:103538003CD01D493046FDF7EBFDB8B3174B0522CB
:103548001A70174B01221A703CE000BFAFF30080DD
:10355800666666666666EE3F7C66C63FE0020020E9
:103568001886D9401CD7A33B75660640C4000020C6
:10357800C8000020DBF97E3F88870741B099D93F12
:1035880044449840150040401100A04052B83640CD
:1035980074030020AC00002000080140A4000020B3
:1035A800A50000200000284200002042744930464F
:1035B800FDF790FD002840F0A9800023714A1370A0
:1035C800714A137087EAE773A3EBE773322B40F372
:1035D800B1806E4B00221A606C4B1A683E466C4BE9
:1035E8009A4200F2AC800220FEF722FE694B0022CC
:1035F8001A605046FCF780FF5BA3D3E90023FCF771
:10360800D3FF80468946644F788AFDF76DFBFCF747
:1036180073FF57A3D3E90023FCF7C6FF02460B4606
:1036280040464946FCF70AFEFDF758FA82465846D6
:10363800FCF762FF4CA3D3E90023FCF7B5FF8046F3
:103648008946F889FDF750FBFCF756FF48A3D3E9F4
:103658000023FCF7A9FF02460B4640464946FCF703
:10366800EDFDFDF73BFA8346012D3FF45DAD022DDC
:103678003FF4F9AD032D3FF47DAE042D7FF4A1ADE9
:1036880046495046FDF744FD00283FF4CAAEB4F55C
:10369800487F7FF7C6AE2046FDF72AFB4049FDF775
:1036A8007BFB04463C4BDB89A3F2771340F62732B9
:1036B80093423FF7B2AE384BDB89A3F27713002B66
:1036C800FFF6ADAE344BD889A0F27710FDF710FBAA
:1036D8003449FDF715FC3449FDF75EFB01462046E9
:1036E800FDF752FAFDF71EFD0446304F3868FCF727
:1036F80003FF21A3D3E90023FCF756FF00222C4B3C
:10370800FCF79CFDFDF7EAF93860E1E600241E4B62
:103718001C70284B1C7005E01A4B1C706420FEF7C7
:1037280087FD0134072CF7DD002220212248FEF70F
:10373800B2FCFEE7154A1368013313604CE7002416
:10374800114B1C701B4B1C7005E00E4B1C70642049
:10375800FEF76EFD0134072CF7DD00222021164804
:10376800FEF799FCFEE700BFCDCCCCCCCCCCEC3F2F
:103778009A9999999999B93F666666666666EE3F21
:1037880000002042A4000020A500002078030020AB
:103798000071020004000020E002002000C02D4556
:1037A800DBF97E3F52B836401CD7A33B7403002098
:1037B80000003440AC000020000801400000000078
:1037C800874B02225A60874B1B68B3F57A7F6DDB03
:1037D8002DE9F041844B1A88844BA3FB02135B0943
:1037E800642101FB13239BB21BBB814C2068FCF7AF
:1037F80083FE73A3D3E90023FCF7D6FE06460F46E3
:103808007C4B9889FDF770FAFCF776FE6EA3D3E936
:103818000023FCF7C9FE6EA3D3E90023FCF7C4FE1E
:1038280002460B4630463946FCF708FDFDF756F9C7
:103838002060714B1B6813F1320F03DA6F4B1B7852
:10384800012B68D06D4B1B78012B6BD0694B5889C5
:103858006B4B1C68001BFCF73DFE5FA3D3E90023FC
:10386800FCF7A2FE00220023FDF710F9002860D122
:10387800604B5889001BFCF72DFE57A3D3E90023A2
:10388800FCF792FE00225F4BFDF71EF9002860D17D
:103898005D4B1B68052B5CD8584B1B78002B58D008
:1038A8005A4A536C43F40043536457E001334D4A7A
:1038B8001360504A908856490B68034403EBD3734E
:1038C8005B100B60D08853490B68034403EBD37338
:1038D8005B100B60108850490B68034403EBD373EB
:1038E8005B100B6050884D490B68034403EBD3739E
:1038F8005B100B60508942490B68034403EBD37398
:103908005B100B601189464A13680B4403EBD373B1
:103918005B1013607047434B05221A70424B01221B
:103928001A7093E73F4B00221A703F4B01221A701E
:103938008CE7304B5889001BFCF7CCFD26A3D3E954
:103948000023FCF731FE0022384BFDF79FF80028D2
:103958009ED02E4A536C23F400435364254B188998
:103968002F4B1C68001BFCF7B5FD1BA3D3E90023F4
:10397800FCF71AFE00220023FDF788F8002859D129
:103988001C4B1889001BFCF7A5FD13A3D3E90023E2
:10399800FCF70AFE00221B4BFDF796F8002859D1C8
:1039A800194B1B68052B55D8144B1B78002B51D08D
:1039B8001F4A536C43F40043536450E0AFF3008054
:1039C8002B8716D9CEF7EF3FF5E4E827181C9B3F65
:1039D800FCA9F1D24D62503F7B14AE47E17A943F87
:1039E80000000240B0000020A60000201F85EB5117
:1039F80008000020E002002090030020AC00002016
:103A08000C00002000002E4004000020003401407B
:103A180014000020180000201C00002020000020B6
:103A280010000020A4000020A500002000002EC0E7
:103A3800002C0140924B1889001BFCF74BFD8EA30C
:103A4800D3E90023FCF7B0FD00228E4BFDF71EF8EA
:103A58000028A5D08C4A536C23F4004353648B4947
:103A68008B6813F0200F0CBF012300238A6812F023
:103A7800400F0CBF01220022896811F0800F0CBF93
:103A8800012500258249886810F4806F0CBF012049
:103A980000208C6814F4006F0CBF0124002489688E
:103AA80011F4805F02EB450203EB4203794EF35CAD
:103AB80079490B600B6803F102030B600D68774BC3
:103AC80083FB0572A2EBE57202EB42024FEA420762
:103AD800A5EB07020A600CBF02220022224400EB79
:103AE8004202B05C6E4A10601068023010601068C4
:103AF80083FB0043A3EBE07303EB43035C00031B6E
:103B0800136009685E488388664A12689A1AC388EF
:103B1800654800681B1A052935D8DFE801F0032439
:103B2800272A2D30D31A614A1360614A138801335A
:103B38009BB213805F4A14784CB35F4AA2FB03120E
:103B4800120B5E490978013192FBF1F001FB10225A
:103B5800EAB993FBF4F204FB1233EBB9102158488D
:103B6800FEF79FFA18E0514B1A60DEE74F4B1A60D8
:103B7800DBE74E4A1360D8E74C4A1360D5E79B1A37
:103B88004A4A1360D1E7494B00221A60CDE7002268
:103B980010214B48FEF77FFA4A4BD3F800C03E4B42
:103BA8001B68052B2BD8DFE803F00312171C22260D
:103BB800CCF1000064469C46434B1968384B1B689F
:103BC800052B52D8DFE803F01F3F43474B4E6446AE
:103BD800CCF1000C0020EFE76046CCF1000C00248B
:103BE800EAE7CCF1000460464FF0000CE4E7CCF1C2
:103BF80000040020E0E7CCF100000024DCE700200E
:103C080004468446D8E74E420F4619462D4B1B689A
:103C1800002B40F39B802D4B1D681F4B1B68053301
:103C28001E4A82FB03E2A2EBE37202EB42024FEA76
:103C3800420EA3EB0E02052A00F2BC80DFE802F078
:103C4800486D72777C810F4649420026DEE70E46B2
:103C580049420027DAE74F420E460021D6E74F4295
:103C68000026D3E74E420027D0E7002637463146E4
:103C7800CCE700BFAFF300807B14AE47E17A943FF6
:103C8800E002002000002EC0002C0140000C014082
:103C98000010014014490008B4000020ABAAAA2A69
:103CA800B80000201400002018000020A800002000
:103CB800A6000020A40000205917B7D1A5000020B5
:103CC80000080140BC000020C0000020C400002003
:103CD800C5F10008AE461546654474444044964B09
:103CE8001B68002B40F3D780944B1B68944A1268DA
:103CF80002F1050C934A82FB0CE2A2EBEC7202EB98
:103D080042024FEA420EACEB0E02052A00F2F9809D
:103D1800DFE802F058A8ADB2B7BCAE466D424FF02E
:103D28000008D9E7A8466D424FF0000ED4E7C5F168
:103D3800000EA8460025CFE7C5F1000E4FF0000899
:103D4800CAE7C5F100084FF0000EC5E77E4B1D68B5
:103D5800C5F1000E7D4B1A6801327A4B83FB028352
:103D6800A3EBE27303EB43034FEA4308A2EB080318
:103D7800052B1AD8DFE803F00323060A0E14A84619
:103D88001D46A9E7F0464FF0000EA5E7F046AE46FF
:103D98000025A1E72B4675469E464FF000089BE795
:103DA800A84675464FF0000E96E74FF00008C64645
:103DB800454691E74FF00008C64645468CE74FF068
:103DC800000889E7C3F100089E461346194407EB2B
:103DD8000E0206EB080305F57A7540F2C676B54281
:103DE80000F397800A2DB8BF0A25594E756304F56C
:103DF8007A7440F2C675AC4200F38E800A2CB8BFC4
:103E08000A24534DAC6300F57A7040F2C674A042A0
:103E180000F385800A28B8BF0A204D4CE06301F5FD
:103E28007A7140F2C67081427CDC0A29B8BF0A2147
:103E38004848416302F57A7240F2C6718A4274DCDE
:103E48000A2AB8BF0A2243498A6303F57A7340F203
:103E5800C67293426CDC0A2BB8BF0A233D4AD3636F
:103E6800BDE8F0819E465B424FF00008AEE79846F9
:103E78005B424FF0000EA9E7C3F1000E98460023FD
:103E8800A4E7C3F1000E4FF000089FE7C3F1000854
:103E98004FF0000E9AE7294B1B68C3F1000E284A21
:103EA80012680132DFF89CC08CFB028CACEBE27C20
:103EB8000CEB4C0C4FEA4C08A2EB080CBCF1050FBC
:103EC8001AD8DFE80CF00323060A0E149846634656
:103ED8007CE7F0464FF0000E78E7F0469E46002358
:103EE80074E71A46734696464FF000086EE7984600
:103EF80073464FF0000E69E74FF00008C646434688
:103F080064E74FF00008C64643465FE74FF00008F5
:103F18005CE740F2C67568E740F2C67471E740F2A4
:103F2800C6707AE740F2C67182E740F2C6728AE745
:103F380040F2C67392E700BFC0000020C80000200E
:103F4800B8000020ABAAAA2AC4000020B4000020B0
:103F580000340140002C0140014B23F81010704739
:103F68000004002030B583B0144C642200212046A0
:103F780000F084F812490A884B88888800B2C988FA
:103F880009B2019100901BB212B20E49204600F00E
:103F98007DF80D4B5B6873B90B4C236823F0010364
:103FA8002360064D2846FCF73BF96060E56023680E
:103FB80043F00103236003B030BD00BF9C03002021
:103FC800000400201C4900081C0002407047FEE75E
:103FD800FEE7FEE7FEE770477047704708B5FEF753
:103FE80019F9FDF754FF08BD002103E00B4B5B589E
:103FF800435004310A480B4B42189A42F6D30A4AF6
:1040080002E0002342F8043B084B9A42F9D3FEF73A
:1040180037FC00F00FF8FEF7DBFF7047684900082F
:1040280000000020880000208800002014040020E0
:10403800FEE7000070B500250C4E0D4CA41BA41023
:10404800A54209D100F040FC00250A4E0A4CA41BE9
:10405800A410A54205D170BD56F825309847013502
:10406800EEE756F8253098470135F2E76049000831
:104078006049000860490008644900080346024492
:10408800934200D1704703F8011BF9E70EB46FF0B3
:10409800004100B59CB01DAB0290069007910491B9
:1040A8000848094953F8042B0591006802A90193AF
:1040B80000F066F80022029B1A701CB05DF804EB51
:1040C80003B07047240000200802FFFF2DE9F047E5
:1040D8008E6882469E420C469046994637D88A8911
:1040E80012F4906F31D00223256809696F1A656947
:1040F80005EB450595FBF3F509F101033B449D42AA
:1041080038BF1D46530530D5294600F035FB064615
:1041180050B90C234FF0FF30CAF80030A38943F0A0
:104128004003A381BDE8F0873A46216900F0B4FA5C
:10413800A38923F4906343F08003A38126613E445E
:1041480026604E466561ED1BA5604E4500D94E467A
:1041580032464146206800F0AAFAA36800209B1B5B
:10416800A36023681E442660DCE72A4600F05EFB55
:1041780006460028E2D12169504600F0B1FAC8E7A6
:104188002DE9F04F9DB003938B8980461D060C46A0
:1041980016460FD50B696BB9402100F0EDFA206087
:1041A800206128B90C23C8F800304FF0FF30C7E071
:1041B800402363610023099320238DF8293030239D
:1041C8004FF0010B8DF82A3037463D4615F8013B74
:1041D8000BB1252B3ED1B7EB060A0BD0534632461E
:1041E80021464046FFF772FF013000F0A480099B8A
:1041F800534409933B78002B00F09D8000234FF037
:10420800FF32CDE90523049307938DF853301A93B1
:104218002F46052217F8011B4F4800F02FFA049B80
:10422800D0B9D90644BF20228DF853201A0744BFBD
:104238002B228DF853202A782A2A15D02F460020C1
:104248000A25079A394611F8013B303B092B4DD90D
:10425800B8B10FE02F46B8E73F4A3D46801A0BFA3F
:1042680000F018430490D3E7039A111D12680391D4
:10427800002A01DB079204E0524243F0020307924E
:1042880004933B782E2B0CD17B782A2B33D1039BBC
:1042980002371A1D1B680392002BB8BF4FF0FF337B
:1042A80005932E4D03223978284600F0E7F938B1F6
:1042B8004023401B03FA00F0049B01370343049397
:1042C8003978062226487E1C8DF8281000F0D6F989
:1042D800002838D0234B13BB039B073323F0070375
:1042E80008330393099B4B4409936DE705FB02329E
:1042F80001200F46A6E700230A2519460137059332
:10430800384610F8012B303A092A03D9002BC8D0B7
:104318000591C6E705FB012101230746F0E703AB3A
:1043280000932246104B04A94046AFF30080B0F139
:10433800FF3F8146D6D1A3895B063FF536AF099882
:104348001DB0BDE8F08F03AB00932246064B04A9CD
:10435800404600F081F8EAE72C4900083249000895
:104368003649000800000000D54000082DE9F04754
:1043780091461F468A680B6906469342B8BF1346A2
:10438800C9F8003091F843200C46DDF8208012B1BE
:104398000133C9F800302368990642BFD9F80030C4
:1043A8000233C9F80030256815F0060507D104F175
:1043B800190AE368D9F800209B1AAB4229DC94F863
:1043C80043302268003318BF012392062ED404F12B
:1043D800430239463046C047013021D02368E5689A
:1043E80003F00603042B18BF0025D9F800204FF06E
:1043F800000908BFAD1AA368226908BF25EAE57558
:104408009342C4BF9B1AED181A344D451AD10020A7
:1044180008E00123524639463046C047013003D1EF
:104428004FF0FF30BDE8F0870135C2E73020E118D2
:1044380081F843005A1C94F845102244023382F84C
:104448004310C4E70123224639463046C0470130AD
:10445800E6D009F10109D8E72DE9F04301F1430C51
:104468000C46097E85B06E291746064698460C9A72
:1044780000F0B38022D8632936D00AD8002900F08A
:10448800B980582900F0838004F1420584F842106D
:1044980032E0642901D06929F6D12068136805063D
:1044A80003F104012AD51B681160002B03DA2D22C1
:1044B8005B4284F843206F480A2239E0732900F0F0
:1044C8009D8008D86F2920D07029DDD1236843F05A
:1044D8002003236003E0752917D07829D4D17823E5
:1044E800654884F8453055E0136804F14205191D04
:1044F8001B68116084F8423001238CE01B6810F0BF
:10450800400F116018BF1BB2CFE713682568181D4C
:104518001060280601D51B6802E06806FBD51B88D9
:104528006F2914BF0A2208225248002184F8431038
:104538006568002DA560C0F29580216821F004010E
:104548002160002B3DD1002D40F08E806546082A61
:104558000BD12368DB0708D5236962689A42DEBF5E
:10456800302305F8013C05F1FF35ACEB0503236169
:10457800CDF800803B4603AA21463046FFF7F6FEF9
:1045880001304DD14FF0FF3005B0BDE8F083394818
:1045980084F84510136821681D1D1B6815600A06FC
:1045A8000BD5CA0744BF41F0200121601BB922681E
:1045B80022F0200222601022B7E74D0648BF9BB2C6
:1045C800EFE76546B3FBF2F102FB1133C35C05F874
:1045D800013D0B460029F5D1B9E713682568181D78
:1045E8006169106028061B6801D5196002E06A0637
:1045F800FBD51980002365462361B9E71368191DA7
:1046080011601D6862680021284600F037F808B17B
:10461800401B606063682361002384F84330A7E788
:1046280023692A4639463046C0470130AAD0236854
:104638009B0713D4E068039B9842B8BF1846A3E7CA
:1046480001234A4639463046C04701309AD00135E1
:10465800E368039A9B1AAB42F2DCEBE7002504F10E
:104668001909F5E7002BACD1037804F1420584F869
:1046780042306CE73D4900084E49000810B5C9B200
:1046880002449042034601D1002303E01C78013024
:104698008C42F6D1184610BD10B5431E0A4491420B
:1046A80000D110BD11F8014B03F8014FF7E788421C
:1046B80010B501EB020307D8421E99420AD011F83F
:1046C800014B02F8014FF8E78342F5D98118D21A55
:1046D800D34200D110BD13F8014D01F8014DF7E7A1
:1046E80038B50546002943D051F8043C0C1F002B6F
:1046F800B8BFE41800F0D0F81E4A1368104633B962
:10470800636014602846BDE8384000F0C6B8A3428C
:104718000BD921686218934201BF1A685B68521866
:10472800226063600460EDE713465A680AB1A2424A
:10473800FAD919685818A0420BD1206801445818B2
:1047480082421960DED110685268014419605A60CB
:10475800D8E702D90C232B60D4E7206821188A42B5
:1047680001BF116852680918216062605C60C9E77E
:1047780038BD00BFCC00002070B5CD1C25F0030566
:1047880008350C2D38BF0C25002D064601DBA94243
:1047980003D90C233360002070BD00F07DF8214A56
:1047A8001468214691B9204C23681BB9304600F0A3
:1047B80063F820602946304600F05EF8431C24D197
:1047C8000C233046336000F068F8E4E70B685B1BA5
:1047D80018D40B2B0FD90B60CC18CD50304600F0F5
:1047E8005CF804F10B00231D20F00700C31AD3D096
:1047F8005A42E250D0E74B688C4216BF63601360A0
:104808000C46EBE70C464968CCE7C41C24F00304CB
:10481800A04205D0211A304600F02EF80130CFD042
:104828002560DBE7CC000020D0000020F8B5074663
:1048380014460E4621B9BDE8F8401146FFF79CBF63
:1048480022B9FFF74DFF25462846F8BD00F026F8A7
:10485800A0420FD221463846FFF78EFF05460028B2
:10486800F2D031462246FFF717FF31463846FFF7A8
:1048780037FFE9E73546E7E738B50023054C054635
:104888000846236000F012F8431C02D1236803B1E4
:104898002B6038BD100400207047704751F8043C65
:1048A800181F002BBCBF0B58C0187047044A054995
:1048B8001368002B08BF0B46184410601846704751
:1048C800D400002018040020F8B500BFF8BC08BCCC
:1048D8009E467047F8B500BFF8BC08BC9E467047B6
:1048E80002030405060708090A0B0C0D0E0F101029
:1048F80001020000000000000000000001020304A3
:104908000607080900000000010203040000020174
:104918000405030025693B25693B25693B25690D8D
:104928000A000000232D302B2000686C4C006566BF
:1049380067454647003031323334353637383941E8
:1049480042434445460030313233343536373839FE
:08495800616263646566000002
:044960000D0200083C
:04496400E90100085D
:1049680000A24A046400000000002042D0070000B2
:10497800D0070000D0070000D0070000D0070000D3
:10498800D007000028000020000000000000000000
:10499800000000000000000000000000000000000F
:1049A80000000000000000000000000000000000FF
:1049B80000000000000000000000000000000000EF
:1049C80000000000000000000000000000000000DF
:1049D80000000000000000000000000000000000CF
:0849E8000000000000000000C7
:0400000508003FF1BF
:00000001FF
