:020000040800F2
:1000000000C00020F14D00087F480008814800082A
:100010008348000885480008874800080000000061
:1000200000000000000000000000000089480008F7
:100030008B480008000000008D4800088F48000829
:10004000394E0008394E0008394E0008394E000874
:10005000394E0008394E0008394E0008394E000864
:10006000394E0008394E0008394E00082941000871
:10007000394E0008394E0008394E0008394E000844
:10008000394E0008394E0008394E0008394E000834
:10009000394E0008394E0008394E0008394E000824
:1000A000394E0008394E0008394E0008394E000814
:1000B000394E0008394E0008394E0008394E000804
:1000C000394E0008394E0008394E0008394E0008F4
:1000D000394E0008394E0008394E0008394E0008E4
:1000E000394E0008394E0008394E0008394E0008D4
:1000F000394E0008394E0008394E0008394E0008C4
:10010000394E0008394E0008394E0008394E0008B3
:10011000394E0008394E0008394E0008394E0008A3
:10012000394E0008394E0008394E0008394E000893
:1001300000000000000000000000000000000000BF
:1001400000000000000000000000000000000000AF
:10015000000000000000000000000000000000009F
:10016000000000000000000000000000000000008F
:10017000000000000000000000000000000000007F
:10018000000000000000000000000000000000006F
:10019000000000000000000000000000000000005F
:1001A000000000000000000000000000000000004F
:1001B000000000000000000000000000000000003F
:1001C000000000000000000000000000000000002F
:1001D000000000000000000000000000000000001F
:0401E0005FF8E0F1F3
:1001E80010B5054C237833B9044B13B10448AFF369
:1001F80000800123237010BD44000020000000008F
:100208009C4E000808B5034B1BB103490348AFF3E4
:10021800008008BD00000000480000209C4E000837
:1002280081F0004102E000BF83F0004330B54FEA9F
:1002380041044FEA430594EA050F08BF90EA020F0C
:100248001FBF54EA000C55EA020C7FEA645C7FEA9F
:10025800655C00F0E2804FEA5454D4EB5555B8BFC2
:100268006D420CDD2C4480EA020281EA030382EA33
:10027800000083EA010180EA020281EA0303362DC5
:1002880088BF30BD11F0004F4FEA01314FF4801C98
:100298004CEA113102D0404261EB410113F0004FAA
:1002A8004FEA03334CEA133302D0524263EB430361
:1002B80094EA050F00F0A780A4F10104D5F1200EFF
:1002C8000DDB02FA0EFC22FA05F2801841F100015A
:1002D80003FA0EF2801843FA05F359410EE0A5F12E
:1002E80020050EF1200E012A03FA0EFC28BF4CF05F
:1002F800020C43FA05F3C01851EBE37101F0004515
:1003080007D54FF0000EDCF1000C7EEB00006EEB21
:100318000101B1F5801F1BD3B1F5001F0CD34908AB
:100328005FEA30004FEA3C0C04F101044FEA445202
:1003380012F5800F80F09A80BCF1004F08BF5FEA89
:10034800500C50F1000041EB045141EA050130BD69
:100358005FEA4C0C404141EB010111F4801FA4F10C
:100368000104E9D191F0000F04BF01460020B1FA61
:1003780081F308BF2033A3F10B03B3F120020CDA99
:100388000C3208DD02F1140CC2F10C0201FA0CF077
:1003980021FA02F10CE002F11402D8BFC2F1200CDC
:1003A80001FA02F120FA0CFCDCBF41EA0C01904092
:1003B800E41AA2BF01EB0451294330BD6FEA0404DB
:1003C8001F3C1CDA0C340EDC04F11404C4F12002C6
:1003D80020FA04F001FA02F340EA030021FA04F3D8
:1003E80045EA030130BDC4F10C04C4F1200220FA2F
:1003F80002F001FA04F340EA0300294630BD21FA6D
:1004080004F0294630BD94F0000F83F4801306BF32
:1004180081F480110134013D4EE77FEA645C18BF26
:100428007FEA655C29D094EA050F08BF90EA020FBD
:1004380005D054EA000C04BF1946104630BD91EAB5
:10044800030F1EBF0021002030BD5FEA545C05D1B8
:100458004000494128BF41F0004130BD14F58004F7
:100468003CBF01F5801130BD01F0004545F0FE416B
:1004780041F470014FF0000030BD7FEA645C1ABFA0
:10048800194610467FEA655C1CBF0B46024650EAD7
:10049800013406BF52EA033591EA030F41F4002103
:1004A80030BD00BF90F0000F04BF0021704730B589
:1004B8004FF4806404F132044FF000054FF000015E
:1004C80050E700BF90F0000F04BF0021704730B51F
:1004D8004FF4806404F1320410F0004548BF4042F4
:1004E8004FF000013EE700BF42004FEAE2014FEA49
:1004F80031014FEA02701FBF12F07F4393F07F4F24
:1005080081F06051704732F07F4208BF704793F026
:100518007F4F04BF41F40021704730B54FF4607439
:1005280001F0004521F000411CE700BF50EA01023C
:1005380008BF704730B54FF000050AE050EA0102E5
:1005480008BF704730B511F0004502D5404261EB55
:1005580041014FF4806404F132045FEA915C3FF496
:10056800D8AE4FF003025FEADC0C18BF03325FEA33
:10057800DC0C18BF033202EBDC02C2F1200300FAE4
:1005880003FC20FA02F001FA03FE40EA0E0021FA09
:1005980002F11444BDE600BF70B54FF0FF0C4CF4F7
:1005A800E06C1CEA11541DBF1CEA135594EA0C0FA9
:1005B80095EA0C0F00F0DEF82C4481EA030621EAE4
:1005C8004C5123EA4C5350EA013518BF52EA03351F
:1005D80041F4801143F4801338D0A0FB02CE4FF0D1
:1005E8000005E1FB02E506F00042E0FB03E54FF001
:1005F8000006E1FB03569CF0000F18BF4EF0010EF9
:10060800A4F1FF04B6F5007F64F5407404D25FEAF4
:100618004E0E6D4146EB060642EAC62141EA5551A7
:100628004FEAC52040EA5E504FEACE2EB4F1FD0CE9
:1006380088BFBCF5E06F1ED8BEF1004F08BF5FEA67
:10064800500E50F1000041EB045170BD06F0004619
:1006580046EA010140EA020081EA0301B4EB5C04C6
:10066800C2BFD4EB0C0541EA045170BD41F48011BE
:100678004FF0000E013C00F3AB8014F1360FDEBFE3
:10068800002001F0004170BDC4F10004203C35DABF
:100698000C341BDC04F11404C4F1200500FA05F342
:1006A80020FA04F001FA05F240EA020001F00042E3
:1006B80021F0004110EBD37021FA04F642EB060159
:1006C8005EEA430E08BF20EAD37070BDC4F10C0483
:1006D800C4F1200500FA04F320FA05F001FA04F247
:1006E80040EA020001F0004110EBD37041F1000133
:1006F8005EEA430E08BF20EAD37070BDC4F120053E
:1007080000FA05F24EEA020E20FA04F301FA05F2A5
:1007180043EA020321FA04F001F0004121FA04F24D
:1007280020EA020000EBD3705EEA430E08BF20EA1D
:10073800D37070BD94F0000F0FD101F00046400057
:1007480041EB010111F4801F08BF013CF7D041EAD9
:10075800060195F0000F18BF704703F000465200DD
:1007680043EB030313F4801F08BF013DF7D043EAAE
:100778000603704794EA0C0F0CEA135518BF95EA64
:100788000C0F0CD050EA410618BF52EA4306D1D1EB
:1007980081EA030101F000414FF0000070BD50EA0A
:1007A800410606BF1046194652EA430619D094EA94
:1007B8000C0F02D150EA013613D195EA0C0F05D17E
:1007C80052EA03361CBF104619460AD181EA0301D2
:1007D80001F0004141F0FE4141F470014FF000008A
:1007E80070BD41F0FE4141F4780170BD70B54FF025
:1007F800FF0C4CF4E06C1CEA11541DBF1CEA1355A5
:1008080094EA0C0F95EA0C0F00F0A7F8A4EB050486
:1008180081EA030E52EA03354FEA013100F088807D
:100828004FEA03334FF0805545EA131343EA126346
:100838004FEA022245EA111545EA10654FEA0026FB
:100848000EF000419D4208BF964244F1FD0404F5B4
:10085800407402D25B084FEA3202B61A65EB030510
:100868005B084FEA32024FF480104FF4002CB6EBCD
:10087800020E75EB030E22BFB61A754640EA0C004D
:100888005B084FEA3202B6EB020E75EB030E22BF8D
:10089800B61A754640EA5C005B084FEA3202B6EBCE
:1008A800020E75EB030E22BFB61A754640EA9C008D
:1008B8005B084FEA3202B6EB020E75EB030E22BF5D
:1008C800B61A754640EADC0055EA060E18D04FEA1B
:1008D800051545EA16754FEA06164FEAC30343EABB
:1008E80052734FEAC2025FEA1C1CC0D111F4801F88
:1008F8000BD141EA00014FF000004FF0004CB6E781
:1009080011F4801F04BF01430020B4F1FD0C88BF1F
:10091800BCF5E06F3FF6AFAEB5EB030C04BFB6EB2A
:10092800020C5FEA500C50F1000041EB045170BD1D
:100938000EF0004E4EEA113114EB5C04C2BFD4EB4A
:100948000C0541EA045170BD41F480114FF0000ECE
:10095800013C90E645EA060E8DE60CEA135594EA4A
:100968000C0F08BF95EA0C0F3FF43BAF94EA0C0F4D
:100978000AD150EA01347FF434AF95EA0C0F7FF4C2
:1009880025AF104619462CE795EA0C0F06D152EA16
:1009980003353FF4FDAE1046194622E750EA4106FA
:1009A80018BF52EA43067FF4C5AE50EA41047FF40B
:1009B8000DAF52EA43057FF4EBAE12E74FF0FF3C70
:1009C80006E000BF4FF0010C02E000BF4FF0010C41
:1009D8004DF804CD4FEA410C7FEA6C5C4FEA430CBA
:1009E80018BF7FEA6C5C1BD001B050EA410C0CBF09
:1009F80052EA430C91EA030F02BF90EA020F00206B
:100A0800704710F1000F91EA030F58BF994208BFD1
:100A180090422CBFD8176FEAE37040F0010070478E
:100A28004FEA410C7FEA6C5C02D150EA013C07D1E5
:100A38004FEA430C7FEA6C5CD6D152EA033CD3D030
:100A48005DF8040B704700BF8446104662468C462A
:100A58001946634600E000BF01B5FFF7B7FF00285D
:100A680048BF10F1000F01BD4DF808EDFFF7F4FF86
:100A78000CBF012000205DF808FB00BF4DF808ED11
:100A8800FFF7EAFF34BF012000205DF808FB00BF34
:100A98004DF808EDFFF7E0FF94BF012000205DF856
:100AA80008FB00BF4DF808EDFFF7CEFF94BF01200B
:100AB80000205DF808FB00BF4DF808EDFFF7C4FF04
:100AC80034BF012000205DF808FB00BF4FEA410257
:100AD800B2F1E04324BFB3F5001CDCF1FE5C0DD994
:100AE80001F0004C4FEAC0024CEA5070B2F1004FDE
:100AF80040EB830008BF20F00100704711F0804FE1
:100B080021D113F13872BCBF01F00040704741F4A5
:100B180080114FEA5252C2F11802C2F1200C10FAA9
:100B28000CF320FA02F018BF40F001004FEAC1238D
:100B38004FEAD32303FA0CFC40EA0C0023FA02F331
:100B48004FEA4303CCE77FEA625307D150EA013307
:100B58001EBF4FF0FE4040F44000704701F00040D7
:100B680040F0FE4040F40000704700BF80F00040B5
:100B780002E000BF81F0004142001FBF5FEA41036D
:100B880092EA030F7FEA226C7FEA236C6AD04FEA6D
:100B98001262D2EB1363C1BFD218414048404140B2
:100BA800B8BF5B42192B88BF704710F0004F40F464
:100BB800000020F07F4018BF404211F0004F41F480
:100BC800000121F07F4118BF494292EA030F3FD04C
:100BD800A2F1010241FA03FC10EB0C00C3F120035F
:100BE80001FA03F100F0004302D5494260EB4000EE
:100BF800B0F5000F13D3B0F1807F06D340084FEA59
:100C0800310102F10102FE2A51D2B1F1004F40EB4D
:100C1800C25008BF20F0010040EA030070474900B5
:100C280040EB000010F4000FA2F10102EDD1B0FA80
:100C380080FCACF1080CB2EB0C0200FA0CF0AABF75
:100C480000EBC25052421843BCBFD0401843704713
:100C580092F0000F81F4000106BF80F40000013219
:100C6800013BB5E74FEA41037FEA226C18BF7FEAF0
:100C7800236C21D092EA030F04D092F0000F08BF32
:100C88000846704790EA010F1CBF0020704712F019
:100C98007F4F04D1400028BF40F00040704712F158
:100CA80000723CBF00F50000704700F0004343F0BD
:100CB800FE4040F4000070477FEA226216BF0846F3
:100CC8007FEA23630146420206BF5FEA412390EAB6
:100CD800010F40F4800070474FF0000304E000BFAC
:100CE80010F0004348BF40425FEA000C08BF70475D
:100CF80043F0964301464FF000001CE050EA010221
:100D080008BF70474FF000030AE000BF50EA010235
:100D180008BF704711F0004302D5404261EB410122
:100D28005FEA010C02BF84460146002043F0B64347
:100D380008BFA3F18053A3F50003BCFA8CF2083A6C
:100D4800A3EBC25310DB01FA02FC634400FA02FC75
:100D5800C2F12002BCF1004F20FA02F243EB02007C
:100D680008BF20F00100704702F1200201FA02FCDE
:100D7800C2F1200250EA4C0021FA02F243EB0200D1
:100D880008BF20EADC7070474FF0FF0C1CEAD05215
:100D98001EBF1CEAD15392EA0C0F93EA0C0F6FD0D6
:100DA8001A4480EA010C400218BF5FEA41211ED0B4
:100DB8004FF0006343EA501043EA5111A0FB0131A0
:100DC8000CF00040B1F5000F3EBF490041EAD37175
:100DD8005B0040EA010062F17F02FD2A1DD8B3F1F1
:100DE800004F40EBC25008BF20F00100704790F060
:100DF800000F0CF0004C08BF49024CEA502040EAB2
:100E080051207F3AC2BFD2F1FF0340EAC250704777
:100E180040F400004FF00003013A5DDC12F1190FB5
:100E2800DCBF00F000407047C2F10002410021FA27
:100E380002F1C2F1200200FA02FC5FEA310040F13F
:100E4800000053EA4C0308BF20EADC70704792F0B8
:100E5800000F00F0004C02BF400010F4000F013AF0
:100E6800F9D040EA0C0093F0000F01F0004C02BFEB
:100E7800490011F4000F013BF9D041EA0C018FE75A
:100E88000CEAD15392EA0C0F18BF93EA0C0F0AD060
:100E980030F0004C18BF31F0004CD8D180EA010086
:100EA80000F00040704790F0000F17BF90F0004F1F
:100EB800084691F0000F91F0004F14D092EA0C0F01
:100EC80001D142020FD193EA0C0F03D14B0218BF94
:100ED800084608D180EA010000F0004040F0FE40DA
:100EE80040F40000704740F0FE4040F44000704776
:100EF8004FF0FF0C1CEAD0521EBF1CEAD15392EAF5
:100F08000C0F93EA0C0F69D0A2EB030280EA010CE4
:100F180049024FEA402037D04FF0805343EA11117D
:100F280043EA10130CF000408B4238BF5B0042F1DB
:100F38007D024FF4000C8B4224BF5B1A40EA0C0080
:100F4800B3EB510F24BFA3EB510340EA5C00B3EBB2
:100F5800910F24BFA3EB910340EA9C00B3EBD10FA0
:100F680024BFA3EBD10340EADC001B0118BF5FEAF2
:100F78001C1CE0D1FD2A3FF650AF8B4240EBC2501B
:100F880008BF20F0010070470CF0004C4CEA5020DC
:100F98007F32C2BFD2F1FF0340EAC250704740F42B
:100FA80000004FF00003013A37E792F0000F00F01D
:100FB800004C02BF400010F4000F013AF9D040EA9B
:100FC8000C0093F0000F01F0004C02BF490011F42F
:100FD800000F013BF9D041EA0C0195E70CEAD15327
:100FE80092EA0C0F08D142027FF47DAF93EA0C0F0E
:100FF8007FF470AF084676E793EA0C0F04D14B02F2
:101008003FF44CAF08466EE730F0004C18BF31F0A3
:10101800004CCAD130F000427FF45CAF31F000439D
:101028007FF43CAF5FE700BF4FF0FF3C06E000BF36
:101038004FF0010C02E000BF4FF0010C4DF804CD59
:101048004FEA40024FEA41037FEA226C18BF7FEA69
:10105800236C11D001B052EA530C18BF90EA010F6B
:1010680058BFB2EB030088BFC81738BF6FEAE170FA
:1010780018BF40F0010070477FEA226C02D15FEA96
:10108800402C05D17FEA236CE4D15FEA412CE1D002
:101098005DF8040B704700BF844608466146FFE7C9
:1010A8000FB5FFF7C9FF002848BF10F1000F0FBDAB
:1010B8004DF808EDFFF7F4FF0CBF012000205DF8A4
:1010C80008FB00BF4DF808EDFFF7EAFF34BF012029
:1010D80000205DF808FB00BF4DF808EDFFF7E0FFC2
:1010E80094BF012000205DF808FB00BF4DF808ED13
:1010F800FFF7D2FF94BF012000205DF808FB00BF76
:101108004DF808EDFFF7C8FF34BF012000205DF857
:1011180008FB00BF4FEA4002B2F1FE4F0FD34FF079
:101128009E03B3EB12620DD94FEA002343F000434C
:1011380010F0004F23FA02F018BF404270474FF0FA
:101148000000704712F1610F01D1420205D110F081
:10115800004008BF6FF0004070474FF00000704734
:1011680042000ED2B2F1FE4F0BD34FF09E03B3EB09
:10117800126209D44FEA002343F0004323FA02F035
:1011880070474FF00000704712F1610F01D1420221
:1011980002D14FF0FF3070474FF00000704700BF9A
:1011A80082B0084B1B68084AA2FB03235B0A00FBBA
:1011B80003F0019000BF019B5A1E0192002BF9D148
:1011C80002B0704700000020D34D621070B582B0A5
:1011D8000446036813F0010F2CD0AB4B5B6803F097
:1011E8000C03042B1DD0A84B5B6803F00C03082BE1
:1011F80012D06368B3F5803F41D0002B55D103F17D
:10120800804303F504331A6822F480321A601A689E
:1012180022F480221A6037E09B4B5B6813F4803F0E
:10122800E7D0994B1B6813F4003F03D06368002B89
:1012380000F0AE81236813F0020F76D0924B5B6802
:1012480013F00C0F5FD0904B5B6803F00C03082B76
:1012580054D02369002B00F08A808C4B01221A603D
:1012680000F0E8FF0546884B1B6813F0020F75D1A4
:1012780000F0E0FF401B0228F5D903208BE1824AE9
:10128800136843F480331360636843B300F0D2FFFC
:1012980005467D4B1B6813F4003FCBD100F0CAFF15
:1012A800401B6428F5D9032075E1B3F5A02F09D0B8
:1012B800754B1A6822F480321A601A6822F4802268
:1012C8001A60E1E703F18043A3F53C331A6842F45E
:1012D80080221A601A6842F480321A60D4E700F05B
:1012E800A9FF0546684B1B6813F4003FA2D000F025
:1012F800A1FF401B6428F5D903204CE1624B5B68D1
:1013080013F4803FA5D1604B1B6813F0020F04D083
:101318002369012B01D001203DE15B4A136823F0CA
:10132800F803616943EAC1031360236813F0080FE7
:1013380032D0A369002B5BD0554B01221A6000F014
:1013480079FF0546504B5B6A13F0020F21D100F07C
:1013580071FF401B0228F5D903201CE14A4A136893
:1013680023F0F803616943EAC1031360DDE7474BE3
:1013780000221A6000F05EFF0546434B1B6813F01D
:10138800020FD2D000F056FF401B0228F5D90320E7
:1013980001E10120FFF704FF236813F0040F00F0B8
:1013A8009780394BDB6913F0805F33D1364BDA69AC
:1013B80042F08052DA61DB6903F080530193019BAC
:1013C8000125344B1B6813F4807F25D0E368012B7B
:1013D80036D0002B4CD103F1804303F504331A6A4D
:1013E80022F001021A621A6A22F004021A622CE040
:1013F800274B00221A6000F01DFF0546224B5B6A4E
:1014080013F0020FC8D000F015FF401B0228F5D9D1
:101418000320C0E00025D4E71E4A136843F4807314
:10142800136000F007FF06461A4B1B6813F4807F11
:10143800CCD100F0FFFE801B6428F5D90320AAE078
:10144800114A136A43F001031362E36873B300F0AF
:10145800F1FE06460C4B1B6A13F0020F37D100F061
:10146800E9FE801B41F288339842F3D9032092E0C9
:10147800052B11D0044B1A6A22F001021A621A6A6B
:1014880022F004021A62E0E7001002400000424223
:101498008004424200700040414B1A6A42F0040244
:1014A8001A621A6A42F001021A62CEE700F0C2FE1E
:1014B80006463B4B1B6A13F0020F08D000F0BAFE39
:1014C800801B41F288339842F3D9032063E0E5B9E1
:1014D800E369002B5ED0324A526802F00C02082AF7
:1014E8005BD0022B17D02F4B00221A6000F0A2FE0F
:1014F80004462B4B1B6813F0007F47D000F09AFE80
:10150800001B0228F5D9032045E0254AD36923F0BA
:101518008053D361DCE7234B00221A6000F08AFE77
:1015280005461F4B1B6813F0007F06D000F082FEB3
:10153800401B0228F5D903202DE0236AB3F5803F2C
:101548001AD017494B6823F47413226A606A02435D
:1015580013434B60134B01221A6000F06BFE0446E4
:101568000F4B1B6813F0007F0ED100F063FE001BC9
:101578000228F5D903200EE0094A536823F4003302
:10158800A1680B435360DCE7002004E0002002E080
:10159800012000E0002002B070BD0120FBE700BF81
:1015A800001002406000424210B487B0164C94E824
:1015B8000F000DF1180C0CE90F00238AADF8043068
:1015C800124B5B6803F00C02082A1AD1C3F383425A
:1015D800624412F8100C13F4803F05D10C4B03FB46
:1015E80000F007B010BC7047084B5B68C3F340437A
:1015F800634413F8142C074BB3FBF2F300FB03F01E
:10160800EFE70448EDE700BFB44E000800100240C1
:1016180000093D0000127A00594B1B6803F00703CC
:101628008B420CD2564A136823F007030B4313600E
:10163800136803F007038B4201D00120704770B58F
:10164800036813F0020F06D04E4A536823F0F003E4
:101658008468234353600C460546036813F0010F62
:1016680052D04368012B23D0022B28D0454A126858
:1016780012F0020F00F0828042494A6822F0030209
:1016880013434B6000F0D6FD06466B68012B1DD056
:10169800022B2AD03B4B5B6813F00C0F34D000F0C0
:1016A800C9FD801B41F288339842F3D9032064E0D6
:1016B800344A126812F4003FDED101205DE0314A5D
:1016C800126812F0007FD7D1012056E02D4B5B68DD
:1016D80003F00C03042B17D000F0ACFD801B41F283
:1016E80088339842F2D9032047E0264B5B6803F021
:1016F8000C03082B08D000F09DFD801B41F28833B5
:101708009842F2D9032038E01D4B1B6803F0070309
:10171800A3420CD91A4A136823F007032343136022
:10172800136803F00703A34201D0012025E02B68CA
:1017380013F0040F06D0134A536823F4E063E968F2
:101748000B4353602B6813F0080F07D00D4A5368FA
:1017580023F46053296943EAC1035360FFF724FF68
:10176800084B5B68C3F30313074AD35CD840074BA5
:101778001860002000F02EFD002070BD0120FCE75D
:101788000020024000100240C84E0008000000205F
:10179800014B1868704700BF0000002008B5FFF72C
:1017A800F7FF044B5B68C3F30223034AD35CD840BA
:1017B80008BD00BF00100240D84E000830B4036ACC
:1017C80023F001030362056A4268846924F0730404
:1017D8000B681C4325F002058B682B43104DA8426B
:1017E80003D005F50065A84205D123F00803CD68AC
:1017F8002B4323F004030A4DA84203D005F50065E6
:10180800A84205D122F440724D6915438A692A43DA
:10181800426084614A684263036230BC704700BF1B
:10182800002C014030B4036A23F480730362036A16
:101838004268C46924F073040D682C4323F40073D0
:101848008D6843EA0523124DA84203D005F50065CB
:10185800A84206D123F40063CD6843EA052323F4A4
:1018680080630B4DA84203D005F50065A84207D157
:1018780022F440524D6942EA05128D6942EA051286
:101888004260C4614A68C263036230BC704700BFEB
:10189800002C014030B4036A23F480530362036AC6
:1018A8004468C26922F4E6420D6842EA052223F43C
:1018B80000538D6843EA0533094DA84203D005F566
:1018C8000065A84204D124F480444D6944EA851493
:1018D8004460C2614A680264036230BC704700BF5A
:1018E800002C014010B4036A046A24F00104046265
:1018F800846924F0F00444EA021223F00A030B433B
:101908008261036210BC704710B4036A23F01003AD
:1019180003628469036A24F4704444EA023223F0BF
:10192800A00343EA01138261036210BC704710B43C
:10193800846824F47F4442EA03230B4323438360EF
:1019480010BC704710B50468A26822F070024B689A
:10195800134323F007030A681343A3604B68502B13
:101968001ED00AD9602B21D0702B05D10B698A684B
:10197800C9680068FFF7DBFF10BD402BFCD1036886
:101988001C6A1A6A22F001021A620268936923F03B
:10199800F003096943EA0113936103681C62EBE7EA
:1019A8000A6989680068FFF79DFFE5E70A698968A1
:1019B8000068FFF7A9FFDFE7704738B590F83C30BB
:1019C800012B18D00446012580F83C50022380F8EA
:1019D8003D30FFF7B7FF2268D36823F04003D36098
:1019E8002268D36823F48043D36084F83D500020F4
:1019F80084F83C0038BD0220FCE700000368244A54
:101A0800904212D002F5006290420ED0B0F1804FA1
:101A18000BD0A2F59832904207D002F5806290422E
:101A280003D002F58062904203D123F070034A6824
:101A38001343174A904212D002F5006290420ED02A
:101A4800B0F1804F0BD0A2F59832904207D002F542
:101A58008062904203D002F58062904203D123F461
:101A68004073CA68134323F080034A691343036031
:101A78008B68C3620B688362054B984203D003F5F9
:101A88000063984201D10B690363012343617047E6
:101A9800002C0140A8B110B5044690F83D305BB168
:101AA800022384F83D30211D2068FFF7A7FF01239A
:101AB80084F83D30002010BD80F83C30FFF77CFFF3
:101AC800EEE701207047000030B4036A23F01003EA
:101AD8000362036A4468826922F4E6420D6842EAB6
:101AE800052223F020038D6843EA0513114DA8420F
:101AF80003D005F50065A84206D123F08003CD6820
:101B080043EA051323F040030A4DA84203D005F524
:101B18000065A84207D124F440644D6944EA85046D
:101B28008D6944EA8504446082614A68826303627D
:101B380030BC7047002C014038B590F83C30012B80
:101B480066D00D460446012380F83C30022380F815
:101B58003D300C2A1AD8DFE802F0071919192019A4
:101B680019193419191947000068FFF727FE226868
:101B7800936943F0080393612268936923F004038F
:101B880093612268936929690B439361012384F85F
:101B98003D30002084F83C0038BD0068FFF794FF12
:101BA8002268936943F4006393612268936923F47C
:101BB8008063936122689369296943EA01239361E9
:101BC800E4E70068FFF72EFE2268D36943F00803B4
:101BD800D3612268D36923F00403D3612268D369EF
:101BE80029690B43D361D1E70068FFF753FE2268E8
:101BF800D36943F40063D3612268D36923F4806313
:101C0800D3612268D369296943EA0123D361BDE717
:101C18000220C1E710B4012303FA01F4036A23EA9E
:101C280004030362036A8A401343036210BC7047CB
:101C380010B5044601220068FFF7ECFF2368094A43
:101C4800934203D002F50062934203D15A6C42F4E6
:101C580000425A642268136843F0010313600020AD
:101C680010BD00BF002C014010B4042303FA01F496
:101C7800036A23EA04030362036A8A401343036284
:101C880010BC704710B5044604220068FFF7ECFF4B
:101C98002268536C43F4004353642268136843F08A
:101CA80001031360002010BD90F83C30012B25D0B3
:101CB800012380F83C30CB6823F440738A681343CF
:101CC80023F480634A68134323F400630A681343C8
:101CD80023F480530A69134323F400534A691343D6
:101CE80023F480438A69134323F4004313430268AF
:101CF8005364002380F83C30184670470220704730
:101D080090F83C30012B22D030B4012280F83C20DE
:101D1800022380F83D300468636823F07003636031
:101D2800046863680D682B4363600468A36823F044
:101D38008003A3600468A36849680B43A36080F824
:101D48003D20002380F83C30184630BC7047022004
:101D580070470000034690F82420012A20D0012271
:101D680080F824200268906810F0010F07D10D4810
:101D7800806810F0010F02D10B48824208D09A6A9D
:101D880042F020029A620120002283F82420704742
:101D9800506820F470200968014351600020F3E77F
:101DA800022070470028014000240140074AD368F8
:101DB80023F4E0631B041B0C000200F4E0601843EA
:101DC80040F0BF6040F40030D060704700ED00E0A4
:101DD80030B4174BDB68C3F30223C3F10704042CA8
:101DE80028BF04241D1D062D18D9033B4FF0FF35CD
:101DF80005FA04F421EA0401994005FA03F322EAFA
:101E08000303194300280BDB0901C9B200F1604044
:101E180000F5614080F8001330BC70470023E5E707
:101E280000F00F000901C9B2024B1954F4E700BFD2
:101E380000ED00E014ED00E000F01F02400901236E
:101E48009340024A42F82030704700BF00E100E0AA
:101E58000138B0F1807F0AD2064B5860064AF0215B
:101E680082F823100020986007221A60704701202A
:101E7800704700BF10E000E000ED00E0042805D046
:101E8800054A136823F0040313607047024A136875
:101E980043F004031360704710E000E0704708B592
:101EA800FFF7FCFF08BD0000F0B482B000263546FD
:101EB800ABE0002C63D0012C00D1CE68FF2B72D888
:101EC8008446FF2B72D8AC00DCF800200F27A7400F
:101ED80022EA070206FA04F42243CCF800204A68F2
:101EE80012F0805F00F09080654A946944F0010424
:101EF8009461926902F001020192019AAC08A71C50
:101F0800604A52F827C005F0030297000F22BA4032
:101F18002CEA020C5C4A90424ED002F58062904254
:101F280000F08B8002F58062904200F0888002F514
:101F38008062904200F0858002F58062904200F055
:101F4800828002F58062904234D0062235E04F4FFD
:101F5800BC4214D00BD94E4FBC4210D007F5803785
:101F6800BC420CD0A7F58017BC42A7D107E0A7F563
:101F78008017BC4203D007F58037BC429ED18C68DD
:101F88007CB1012C08D04261082697E7CE68083654
:101F980094E7CE680C3691E7026108268EE70026A2
:101FA8008CE704268AE700F1040C8AE7A5F1080407
:101FB800A40089E7052200E00022BA4042EA0C02A8
:101FC8000234304F47F824204A6812F4803F3CD04E
:101FD800304C22681A4322604A6812F4003F3AD013
:101FE8002C4C62681A4362604A6812F4801F38D029
:101FF800284CA2681A43A2604A6812F4001F36D01F
:10200800244CE2681343E36001350F2D35D80122D3
:10201800AA400B6813409A42F6D14C68122CB8D0EB
:1020280095D8022CB2D07FF644AF032CB7D0112C30
:102038007FF444AFCE68043640E70122BDE70222B0
:10204800BBE70322B9E70422B7E7124C226822EA69
:1020580003022260C0E70F4C626822EA0302626052
:10206800C2E70C4CA26822EA0302A260C4E7094C4A
:10207800E26822EA0303E360C6E702B0F0BC7047F7
:10208800001002400000014000080140000021103B
:1020980000003110000401408368194201D100207A
:1020A80070470120704712B9090401617047016146
:1020B8007047C3685940C1607047000070B582B06E
:1020C8000446036813F0010F34D03E4BDB6913F06C
:1020D800805F48D13B4BDA6942F08052DA61DB69B4
:1020E80003F080530193019B0125374B1B6813F4C0
:1020F800807F3AD0334B1B6A13F4407311D0626867
:1021080002F440729A420CD02E4A136A23F44070AB
:102118002E4901260E6000260E60106213F0010F92
:1021280037D1284A136A23F4407361680B4313625A
:10213800002D3FD1236813F0020F06D0214A5368BF
:1021480023F44043A1680B435360236813F0100F36
:1021580035D01C4A536823F4800361690B435360EC
:10216800002002B070BD0025BFE7174A136843F48A
:102178008073136000F05EF80646134B1B6813F477
:10218800807FB7D100F056F8801B6428F5D903206A
:10219800E7E700F04FF806460A4B1B6A13F0020FF8
:1021A800BFD100F047F8801B41F288339842F3D939
:1021B8000320D6E7D36923F08053D361BAE7002020
:1021C800CFE700BF001002400070004040044242C8
:1021D8007047000010B50446074B1868074BA3FB6F
:1021E80000308009FFF734FE002221464FF0FF300F
:1021F800FFF7EEFD002010BD00000020D34D621057
:1022080008B5074A136843F0100313600320FFF76B
:10221800CDFD0020FFF7DEFFFFF7DAFF002008BD45
:1022280000200240024A136801331360704700BF60
:1022380094000020014B1868704700BF94000020EC
:1022480030B583B00190FFF7F5FF0546019CB4F166
:10225800FF3F00D00134FFF7EDFF401BA042FAD347
:1022680003B030BD7047000030B482B00023019342
:1022780090F82430012B00F08B800246012380F86F
:1022880024304B68062B29D80568686B03EB830359
:10229800053B1F249C4020EA04000C6804FA03F361
:1022A80003436B630B68092B38D91568E86803EB9F
:1022B80043031E3B07249C4020EA04008C6804FA70
:1022C80003F30343EB600B68103B012B34D9002068
:1022D800002382F8243002B030BC70470C2B0ED893
:1022E8000568286B03EB8303233B1F249C4020EAEB
:1022F80004000C6804FA03F303432B63D2E7056870
:10230800E86A03EB8303413B1F249C4020EA040056
:102318000C6804FA03F30343EB62C3E71568286902
:1023280003EB430307249C4020EA04008C6804FA6A
:1023380003F303432B61C6E713681648834205D0AD
:10234800936A43F0200393620120C1E7986810F470
:10235800000F1BD1986840F4000098600B68102BA0
:1023680001D00020B4E70C4B1B680C49A1FB0313F8
:102378009B0C03EB83035900019102E0019B013B95
:102388000193019B002BF9D10020A1E700209FE7D2
:102398000220A0E7002401400000002083DE1B4348
:1023A80030B583B00023019303689A6812F0010FD7
:1023B8002ED19A6842F001029A60174B1B68174A9F
:1023C800A2FB03239B0C019302E0019B013B0193B9
:1023D800019B002BF9D10446FFF72CFF0546236823
:1023E8009B6813F0010F11D1FFF724FF401B02284F
:1023F800F5D9A36A43F01003A362E36A43F001032B
:10240800E362002384F82430012002E0002000E089
:10241800002003B030BD00BF0000002083DE1B4356
:1024280090F82430012B6AD010B50446012380F8B7
:102438002430FFF7B5FF024600285BD1A36A23F4D6
:10244800407323F0010343F48073A36223682D498A
:102458008B4227D0A16A21F48011A162596811F436
:10246800806F05D0A16A21F4405141F48051A162E6
:10247800A16A11F4805F2BD0E16A21F00601E162C4
:10248800002184F824106FF002011960236899680C
:1024980001F46021B1F5602F1DD0996841F48011D5
:1024A80099602AE0A1F58061496811F4702FD1D0B4
:1024B800A16A41F48011A1621349496811F4806F3F
:1024C800D6D0A16A21F4405141F48051A162CFE7EE
:1024D8000021E162D4E70B498B4204D0996841F4AA
:1024E800A001996009E0A1F58061496811F4702F95
:1024F800D3D1F3E7002384F82430104610BD02221C
:1025080010467047002801400024014038B5036890
:102518009A6812F0010F01D1002038BD04469A686C
:1025280022F001029A60FFF785FE054623689B6842
:1025380013F0010F0ED0FFF77DFE401B0228F5D9DE
:10254800A36A43F01003A362E36A43F00103E36262
:102558000120E2E70020E0E7002800F08A8070B55B
:102568000446836A002B36D02046FFF7CFFFA36AC4
:1025780013F0100377D1002875D1A26A22F488528B
:1025880022F0020242F00202A262626825683A4919
:102598008D4226D0E1690A43E66842EA4602A1680C
:1025A800B1F5807F27D0012922D06169012925D082
:1025B800696821F469410B436B6021688D682F4B72
:1025C8002B4013438B60A368B3F5807F27D0012B82
:1025D80025D0002126E0C36280F82430FFF742FEB0
:1025E800C2E7E169B1F5402FD5D14FF40021D2E718
:1025F8004FF48073D9E74FF48073D6E736B9A169F1
:10260800013943EA413343F40063D1E7A16A41F059
:102618002001A162E16A41F00101E162C8E7236992
:10262800013B19052568EB6A23F470030B43EB6241
:1026380023689968124B0B409A420BD0A36A23F087
:10264800120343F01003A362E36A43F00103E36259
:1026580001200DE00023E362A36A23F0030343F0A3
:102668000103A36204E0A36A43F01003A3620120FC
:1026780070BD0120704700BF003C0140FDF7E1FF3D
:10268800FE0E1FFF03685A6912F4806F0DD06FF4B5
:1026980080625A610423036400230363202280F8C4
:1026A8003D2080F83C300120704700207047F8B585
:1026B80006460C4617461D461EE02DB1FFF7BAFD2B
:1026C800069BC01AA84217D900233363202286F834
:1026D8003D2086F83E3086F83C3003201AE0336807
:1026E8005B6924EA03039BB2B3FA83F35B099F4255
:1026F8000FD1B5F1FF3FE0D1C4F30743012BEED072
:1027080033689B6924EA03039BB2B3FA83F35B093A
:10271800EDE70020F8BDF8B504460D4616461F46FD
:1027280032E01A6842F400721A6023686FF480621B
:102738005A610423236400232363202284F83D2064
:1027480084F83C3001202DE026B1FFF773FDC01B53
:10275800B04219D900232363202284F83D2084F84D
:102768003C3003201EE023685B6925EA03039BB223
:10277800003318BF0123A3B123685A6912F4806F8C
:10278800CFD1B6F1FF3FDFD1C5F30743012BEAD024
:1027980023689B6925EA03039BB2003318BF012312
:1027A800E9E70020F8BD0000F0B583B004460D4607
:1027B80016461F46C36A042B0DD0012B0BD013F508
:1027C800803F08D0036B122B0AD10268136843F4C8
:1027D8008073136004E02268136843F48073136005
:1027E8000097334600224FF001112046FFF75FFFA4
:1027F80058BB2369B3F5804F10D1236805F0FE0557
:102808001D613B46324615492046FFF784FF0346C3
:10281800E0B1236C042B1ED1012317E0EB112268D1
:1028280003F0060343F0F00313613B4632460C49BC
:102838002046FFF770FF20B1236C042B09D1012338
:1028480004E02368EDB21D61DBE70323184603B0FB
:10285800F0BD0323FAE70323F8E700BF02000100F5
:10286800080001002DE9F04184B004460D461646E3
:102878001F46C26A01680B6843F480630B60042A30
:102888000DD0012A0BD012F5803F08D0036B112B15
:102898000AD10268136843F48073136004E0226865
:1028A800136843F4807313600097334600224FF097
:1028B80001112046FFF7FBFE002852D12369B3F52A
:1028C800804F12D1236845F00105EDB21D613B46EA
:1028D80032462A492046FFF71EFF0346002841D00A
:1028E800236C042B48D101233CE04FEAE51808F09B
:1028F8000608236848F0F0021A613B463246204930
:102908002046FFF708FF20B1236C042B2ED10123AA
:1029180028E02368EDB21D613B4632461749204640
:10292800FFF7F9FE20B1236C042B21D1012319E014
:1029380000220392236859690391996903910399C5
:10294800196841F480711960009733464FF00111FE
:102958002046FFF7ACFE68B9226848F0F10313611E
:10296800B5E70323184604B0BDE8F0810323F9E76F
:102978000323F7E70323F5E70323F3E70200010046
:102988000800010070B504460D46164623685B69C9
:1029980013F0800F19D12046FFF774FEB8B9B5F1CE
:1029A800FF3FF3D025B1FFF745FC801BA842EDD9C6
:1029B800236C43F02003236400232363202284F83C
:1029C8003D2084F83C30032000E0002070BD012049
:1029D800FCE770B504460D46164623685B6913F09C
:1029E800040F19D12046FFF74DFEB8B9B5F1FF3FE6
:1029F800F3D025B1FFF71EFC801BA842EDD9236C4C
:102A080043F02003236400232363202284F83D201D
:102A180084F83C30032000E0002070BD0120FCE772
:102A280070B505460C4616462B685A6912F0400FD9
:102A380022D15A6912F0100F11D124B1FFF7FAFB15
:102A4800801BA042F0D92B6C43F020032B64202379
:102A580085F83D30002385F83C30032070BD6FF0C9
:102A680010025A6100232B642B63202285F83D2035
:102A780085F83C300120F1E70020EFE770470000BF
:102A8800002800F0828010B5044690F83D30002BF5
:102A980041D0242384F83D302268136823F00103D1
:102AA8001360FEF77BFE3A4BA3FB00239B0C2268C6
:102AB80053606168374A914232D801332268136201
:102AC8006368344A934235D85B00B0FBF3F0C0F337
:102AD8000B03032B00D804202368D861E369216A1B
:102AE80022680B4313602369E16822680B439360F3
:102AF8006369A16922680B43D3602268136843F0B5
:102B08000103136000202064202384F83D302063F3
:102B180084F83E0010BD80F83C30FFF7AFFFB8E7FF
:102B28004FF4967202FB03F31B4AA2FB03239B0993
:102B38000133C3E7A16889B903EB4302B0FBF2F2A2
:102B4800C2F30B02B2FA82F25209E2B991B903EB6D
:102B58004303B0FBF3F040F40040BDE703EB83020E
:102B680002EB8202B0FBF2F2C2F30B02B2FA82F27B
:102B78005209EAE703EB830303EB8303B0FBF3F0AB
:102B880040F44040A8E70120A6E70120704700BFB5
:102B980083DE1B43A0860100D34D62102DE9F0416E
:102BA80084B004460E4690461F46FFF743FB94F850
:102BB8003D30DBB2202B04D00226304604B0BDE8FD
:102BC800F081054600901923012254492046FFF759
:102BD8006EFD002840F0998094F83C30012B00F0FD
:102BE8009680012384F83C3023681A6812F0010F9C
:102BF80003D11A6842F001021A602268136823F4AC
:102C080000631360212384F83D30102384F83E309C
:102C180000232364C4F824806785A3F58033E36226
:102C2800638D23852B460A9A31462046FFF7BCFD63
:102C3800064660B1236C042B04D1002384F83C3091
:102C48000126BAE7002384F83C300326B5E70023C1
:102C5800039323685A6903929B690393039B10E0CB
:102C6800236C042B55D12268136843F40073136056
:102C78000126A2E72A460A992046FFF7AAFE00285D
:102C88002BD1238D002B32D02A460A992046FFF7F4
:102C980079FE0028E4D1636A5A1C626222681B78B4
:102CA8001361638D013B9BB26385238D013B9BB20E
:102CB80023852268516911F0040FDBD0002BD9D08D
:102CC800636A591C61621B781361638D013B9BB277
:102CD8006385238D013B2385CCE7236C042B1AD114
:102CE8002268136843F400731360012665E72268BD
:102CF800136843F400731360202384F83D300023E5
:102D080084F83E3084F83C3057E7022655E702261F
:102D180053E7032651E703264FE700BF02001000E0
:102D28002DE9F04186B004460E4690461F46FFF74F
:102D380081FA94F83D30DBB2202B04D002263046CD
:102D480006B0BDE8F08105460090192301228F499D
:102D58002046FFF7ACFC002840F0518194F83C3045
:102D6800012B00F04E81012384F83C3023681A6857
:102D780012F0010F03D11A6842F001021A602268AA
:102D8800136823F400631360222384F83D30102372
:102D980084F83E3000232364C4F824806785A3F5B3
:102DA8008033E362638D23852B460C9A3146204697
:102DB800FFF758FD064660B1236C042B04D10023AD
:102DC80084F83C300126BAE7002384F83C30032617
:102DD800B5E7238D5BB9029323685A6902929A6911
:102DE8000292029A1A6842F400721A607FE0012B7C
:102DF8000FD0022B21D02268136843F4806313603C
:102E08000023059323685A6905929B690593059BDE
:102E18006DE02268136823F48063136072B60023A0
:102E2800039323685A6903929A690392039A1A686A
:102E380042F400721A6062B659E02268136843F4DB
:102E48000063136072B60023049323685A690492DE
:102E58009A690492049A1A6822F480621A6062B627
:102E680045E02A460C992046FFF7DAFD68B9236841
:102E78001A69636A591C61621A70238D013B2385A4
:102E8800638D013B9BB2638531E0236C202B01D01D
:102E9800012654E7032652E700950C9B00223C4983
:102EA8002046FFF704FC002840F0AD8072B6226887
:102EB800136843F40073136023681A69636A591C22
:102EC80061621A70238D013B2385638D013B9BB2A0
:102ED800638562B623681A69636A591C61621A704D
:102EE800238D013B2385638D013B9BB26385238D35
:102EF800002B7BD0032B4DD8012BB2D0022BCBD08B
:102F080000950C9B002222492046FFF7D0FB0028A1
:102F18007BD12268136823F48063136072B6236838
:102F28001A69636A591C61621A70238D013B2385F3
:102F3800638D013B9BB2638500950C9B002214496D
:102F48002046FFF7B4FB002861D12268136843F4D8
:102F58000073136023681A69636A591C61621A70E6
:102F6800238D013B2385638D013B9BB2638562B64C
:102F780023681A69636A591C61621A70238D013BC0
:102F88002385638D013B9BB26385B0E70200100087
:102F9800040001002A460C992046FFF741FDF0B9CC
:102FA80023681A69636A591C61621A70238D013B90
:102FB8002385638D013B9BB2638523685A6912F0B0
:102FC800040F94D01A69636A591C61621A70238DC0
:102FD800013B2385638D013B9BB2638587E7236CA7
:102FE800202B01D00126AAE60326A8E6202384F890
:102FF8003D30002384F83E3084F83C309FE60226BA
:103008009DE602269BE6032699E6032697E6032615
:1030180095E600BF00283FD010B4034601681F4A58
:1030280091422ED81E4A0A441E49A1FB02121209D7
:10303800920002641C4AC263022283F821201868A5
:10304800016821F47F5121F030015A689C682243BD
:10305800DC6822431C6922435C6922439C69224341
:10306800DC6922430A43026000209862D862186330
:1030780058639863012283F8212083F8200010BC4C
:1030880070470A4A0A440749A1FB02121209920032
:103098000264074AC263CFE7012070470704024071
:1030A800F8FFFDBFCDCCCCCC00000240F8FBFDBF43
:1030B800000402400F4B1A6842F001021A60596876
:1030C8000D4A0A405A601A6822F0847222F480324B
:1030D8001A601A6822F480221A605A6822F4FE02E2
:1030E8005A604FF41F029A60044B4FF000629A60D6
:1030F800704700BF001002400000FFF800ED00E03C
:103108002DE9F0418AB04A4DEB6943F48003EB6145
:10311800EB6903F480030193019B6B6943F001039E
:103128006B616B6903F001030293029B0422012186
:103138000E20FEF74DFE0E20FEF77EFE0322012133
:103148000F20FEF745FE0F20FEF776FE394E3A4B6C
:1031580033603A4B73600024B460F4604FF48043EA
:1031680033617461B461F46134623046FFF788FCFE
:103178006B6943F001036B616B6903F0010303930F
:10318800039BAB6943F00803AB61AB6903F0080329
:103198000493049B4FF4406306931223079301237F
:1031A80008930323099306A92548FEF77DFEEB69DA
:1031B80043F48003EB61EB6903F480030593059BFB
:1031C800204D214B2B606C60AC604FF08008C5F837
:1031D8000C802C616C61AC614FF48057EF6128461C
:1031E800FFF718FFB5636E62184D194B2B6010235B
:1031F8006B60AC60C5F80C802C616C61AC61EF61F0
:103208002846FFF707FF75636E6222462146212094
:10321800FEF7DEFD2120FEF70FFE22462146222082
:10322800FEF7D6FD2220FEF707FE0AB0BDE8F081C2
:10323800001002400C01002000580040A086010048
:10324800000C0140A001002058000240E4010020C9
:10325800440002402DE9F04F89B07B4B9A6942F057
:1032680004029A619A6902F004020192019A9A6929
:1032780042F008029A619A6902F008020292029AE0
:103288009A6942F010029A619B6903F01003039354
:10329800039B002305930693022707974FF0200A04
:1032A8000DEB0A0444F810AD21466848FEF7FCFD12
:1032B8004023049321466548FEF7F6FD80250495D2
:1032C80021466248FEF7F0FD4FF4806304932146DF
:1032D8005F48FEF7E9FD4FF40063049321465C481C
:1032E800FEF7E2FD4FF48056049621465848FEF753
:1032F800DBFD049621465748FEF7D6FD0497214684
:103308005448FEF7D1FD4FF00108CDF814804FF076
:103318000409CDF8109021464C48FEF7C5FD10264B
:10332800049621464B48FEF7BFFDCDF810A0214674
:103338004848FEF7B9FD03230593CDF810802146D0
:103348004348FEF7B1FDCDF8108021464148FEF70D
:10335800ABFD4FF0080BCDF810B021463C48FEF706
:10336800A3FD049721463A48FEF79EFD04962146A0
:103378003748FEF799FDCDF810A021463448FEF7EE
:1033880093FDCDF8109021463148FEF78DFDCDF81C
:1033980010B021462F48FEF787FDCDF81090214642
:1033A8002C48FEF781FD05974023049321462848C1
:1033B800FEF77AFD049521462548FEF775FD4FF482
:1033C8008079CDF8109021462148FEF76DFD0495CF
:1033D80021462048FEF768FDCDF8108021461B489D
:1033E800FEF762FD049721461848FEF75DFDCDF80B
:1033F800109021461748FEF757FD4FF400730493C9
:1034080021461448FEF750FD4FF48063049321468B
:103418001048FEF749FD4FF40053049321460B482A
:10342800FEF742FD4FF48043049321460748FEF718
:103438003BFD4FF40043049321460448FEF734FD56
:1034480009B0BDE8F08F00BF00100240000C014039
:1034580000100140000801402DE9F04F99B0754B6C
:103468009A6942F400629A619A6902F400620192D0
:10347800019A9A6942F400529A619B6903F40053D5
:103488000293029B6C4EDFF8B891C6F800900024B6
:1034980074604FF02008C6F808804FF4FA6BC6F83D
:1034A8000CB034617461B4613046FEF7F3FA10234E
:1034B8001693179416A93046FEF722FC60230F9343
:1034C8001094119408271297139414944FF40073CE
:1034D800159322460FA93046FEF72EFB04220FA9AA
:1034E8003046FEF729FB3A460FA93046FEF724FB83
:1034F8004FF4006308934FF4806309930A94CDF85E
:103508002C800C940D940E940DEB08013046FEF7B8
:10351800CBFB4A4DDFF82CA1C5F800A06C60C5F8BC
:103528000880C5F80CB02C616C61AC612846FEF7C8
:10353800B1FACDF858808023179316A92846FEF7CC
:10354800DFFB049418A9052341F8543D2846FEF7EB
:1035580034FA60230F9310941194129713941494CF
:103568004FF40073159322460FA92846FEF7E4FA94
:1035780004220FA92846FEF7DFFA3A460FA9284683
:10358800FEF7DAFA4FF4006308934FF48063099367
:103598000A94CDF82C800C940D940E940DEB080130
:1035A8002846FEF781FBDAF8443023F40043CAF8D2
:1035B8004430D9F8443023F40043C9F84430214654
:1035C8002846FEF735FB04212846FEF731FB39462D
:1035D8002846FEF72DFB21462846FEF753FB04211B
:1035E8002846FEF74FFB39462846FEF74BFB214697
:1035F8003046FEF71DFB04213046FEF719FB39461D
:103608003046FEF715FB21463046FEF73BFB04210A
:103618003046FEF737FB39463046FEF733FB2B685A
:1036280001221A633268136843F00103136019B06A
:10363800BDE8F08F0010024060010020F002002079
:10364800002C0140003401402DE9F04186B0424E83
:10365800B36943F40073B361B36903F4007300936F
:10366800009B3E4C3E4B23604FF48073A3600025C3
:10367800E56065614FF44023E36165604FF005083C
:10368800C4F810802046FEF767FF364A536843F4B3
:103698008023536006A94FF4C02341F8043D204617
:1036A800FEF758FB012304930E220292039302A90A
:1036B8002046FEF7D9FD02950227039702A9204666
:1036C800FEF7D2FD04970B2702970323039302A961
:1036D8002046FEF7C9FD0C2302930423039302A995
:1036E8002046FEF7C1FD0723049310230293CDF86B
:1036F8000C8002A92046FEF7B7FD2268936843F4C0
:10370800000343F480739360936843F0010393606C
:10371800736943F001037361736903F00103019353
:10372800019B114B1D60C3F80480104A9A60104A2F
:10373800DA6040F6A2221A601A6842F001021A60A2
:103748002A4629463846FEF743FB3846FEF774FBFF
:1037580006B0BDE8F08100BF00100240280200203A
:103768000024014000000140080002404C240140B0
:103778009C020020F0B585B0284B9A6942F480621B
:103788009A619B6903F480630093009B244C254B4A
:1037980023604FF48073A3600023E36063614FF4F8
:1037A8006022E2616360052626612046FEF7D4FEAA
:1037B800012303930F220192029301A92046FEF7E9
:1037C80053FD0D2301930225029501A92046FEF71A
:1037D8004BFD03950A2301930327029701A920466D
:1037E800FEF742FD0195042302930DEB03012046E9
:1037F800FEF73AFD072303930197029601A9204695
:10380800FEF732FD23689A6842F480729A609A68DB
:1038180042F001029A6005B0F0BD00BF00100240FE
:10382800DC0000200028014070B5064600240CE0AA
:10383800074D02232B706420FEF702FD00232B7036
:10384800C820FEF7FDFC0134E4B2B442F0D370BDE9
:1038580060000020194B1B681333262B00D97047D2
:1038680010B5174C204601F0D7F93220FEF7E8FCD6
:1038780000221146204601F0A1F91249204601F024
:10388800ADF901220021204601F098F90E492046A1
:1038980001F0A4F900240D4B1C700D4B1C7005E0C1
:1038A8000C4B1C706420FEF7CBFC0134072CF7DDB1
:1038B800002220210848FEF7F6FBFEE7F00300206F
:1038C80030030020704F00087C4F0008640000207F
:1038D80070000020600000200008014030B597B05B
:1038E80002250C950123109310231193139500249E
:1038F80014944FF4601315930CA8FDF767FC0F237D
:103908000793089509944FF480630A930B9429460A
:1039180007A8FDF781FE01954FF44043039301A8E2
:10392800FEF7CCFBFDF734FF084BA3FB0030800902
:10393800FEF78EFA0420FEF7A1FA224621464FF040
:10394800FF30FEF745FA17B030BD00BFD34D621007
:103958002DE9F04F85B0FEF753FCBB4CA36943F04B
:103968000103A361A36903F001030393039B0320ED
:10397800FEF71CFA002211466FF00B00FEF728FA3A
:10398800002211466FF00A00FEF722FA00221146C3
:103998006FF00900FEF71CFA002211466FF00400D0
:1039A800FEF716FA002211466FF00300FEF710FA30
:1039B800002211466FF00100FEF70AFA00221146B4
:1039C8004FF0FF30FEF704FAFFF788FF636923F032
:1039D80001036361FFF73EFCFFF73EFDFFF734FE8E
:1039E800FFF7C8FE012220219848FEF75CFB9848A3
:1039F800FEF716FD9748FEF713FD082405E0964BE1
:103A08001C706420FEF71CFC013C002CF7DA002532
:103A1800914B1D70012204219048FEF744FBFFF7EB
:103A28006FFB6420FEF70CFC8D4C272384F8403094
:103A38004FF00508C4F8448054228A4904F148002C
:103A480001F01CFA0126267084F83C50204601F04B
:103A58002FF9204601F0E0F84046FEF7F1FB2A4630
:103A68002946204601F0AAF87F49204601F0B6F819
:103A780032462946204601F0A1F87C49204601F04B
:103A8800ADF87B4B5A8ADB894FF49670FEF7D8FB6A
:103A98000220FFF7C9FE02E06420FEF7D1FB744B59
:103AA800DB899BB240F664229342F5D8704B5B8A5F
:103AB8009BB240F625029342EED86D4B188AFDF76B
:103AC8000BF900906B4B01221A704FF0000AD34695
:103AD80000252E465AE26849614801F07FF8604C9B
:103AE80000220D21204601F069F8644B1868FDF7A3
:103AF80037FB00220146204601F0A8F800220F21DA
:103B0800204601F05BF85E49204601F067F8012283
:103B18000021204601F052F85A49204601F05EF88B
:103B280001220821204601F049F8012285EAE571C1
:103B3800A1EBE571204601F089F8534B00221A6089
:103B48005846FCF7D1FC3CA3D3E90023FCF724FD3D
:103B580080468946464C608AFDF7BEF8FCF7C4FCEF
:103B680037A3D3E90023FCF717FD02460B4640466E
:103B78004946FCF75BFBFCF7A9FF83465046FCF778
:103B8800B3FC2DA3D3E90023FCF706FD8046894644
:103B9800E089FDF7A1F8FCF7A7FC29A3D3E90023E6
:103BA800FCF7FAFC02460B4640464946FCF73EFB4A
:103BB800FCF78CFF8246608AFDF78EF88046E08924
:103BC800FDF78AF804463149FDF79AFA00286DD1C5
:103BD8002E492046FDF776FA28B12D492046FDF7F3
:103BE8008FFA00287BD12A492046FDF76BFA002876
:103BF8005ED04FF03F475BE02649194800F0EEFFE2
:103C08006DE72549164800F0E9FF68E7234914489D
:103C180000F0E4FF63E72249114800F0DFFF5EE7A8
:103C280020490F4800F0DAFF59E71F490C4800F017
:103C3800D5FF54E7AFF30080CDCCCCCCCCCCEC3F57
:103C48009A9999999999B93F001002400008014042
:103C580028020020DC00002060000020000C014049
:103C6800300300200C010020E04E0008EC4E000854
:103C78009C02002070000020FC4E00080800002074
:103C8800644F0008684F0008040000200000264424
:103C9800000084430C4F0008184F0008244F000808
:103CA800304F00083C4F0008484F00084FF07E573F
:103CB8002846FDF715F88A49FDF766F8054689494B
:103CC8004046FCF757FF04468749FDF719FA40B903
:103CD80000212046FDF7F6F920B1002402E0002774
:103CE800E6E7814C81492046FDF702F98049FDF756
:103CF8004BF801462846FCF73FFFFDF70BFA05464F
:103D080000237C4A13607C4A1360B0F57A7F06DC96
:103D180010F57A7F55DBFCF7E3FF014600E07749B1
:103D28003846FDF731F8FDF7F5F90446744B18608D
:103D380006F1320383420BDD323E864208DA714BCC
:103D48001B68042B04D8704B186043426F4A1360F9
:103D58006F4B1A686F4BA3FB0213DB0803EB83035B
:103D680003EB83039A422ED002216B48FEF794F9A5
:103D780038B1614B1B6823B95E4B1B68002B00F000
:103D88008480664B1E6866493046FDF79BF928B16A
:103D98005B4B1B681333262B40F283806149304606
:103DA800FDF790F900287FD05F493046FDF7A8F964
:103DB800002879D05D4B05221A705D4B2A221A70B3
:103DC800D2E05C49ACE70098FCF78EFB40A3D3E94E
:103DD8000023FCF7E1FBCDE90001DFF87081B8F8BA
:103DE8001000FCF779FFFCF77FFB3BA3D3E9002326
:103DF800FCF7D2FB02460B46DDE90001FCF716FA98
:103E0800FCF764FE814600904B49FCF7B3FE4B4932
:103E1800FCF7BAFF4A49FCF7AFFE06465846FDF7DD
:103E280079F90146002000F01FFD5046FDF772F9B0
:103E38000146012000F018FD2146022000F014FD83
:103E48002146032000F010FDB8F80C10042000F003
:103E58000BFD3C49314B1868FCF796FFFDF75AF902
:103E68000146052000F000FD4846FDF753F90146DC
:103E7800062000F0F9FC3046FDF74CF90146072012
:103E880000F0F2FC00F0F6FC6EE72F4B00221A70EF
:103E980002212148FEF700F90028F9D1FFF7DAFCE2
:103EA8006FE7FFF7D7FC5FE01F493046FDF70AF9D7
:103EB80000284DD01A493046FDF722F9002847D08E
:103EC8001A4B05221A701A4B06221A704CE000BFD2
:103ED800AE47E17A14AEEF3F7B14AE47E17A843FF8
:103EE800DBF97E3F0000FC4300E0FD4420F8794008
:103EF8001CD7A33B880000208C00002000007A44D7
:103F0800F00300200400002084000020800000202E
:103F1800D80300201F85EB5100080140080000204D
:103F2800CCCC06420000104200000C426000002089
:103F38006400002000007AC400E0CE44083748BE80
:103F480033330F420000C842700000209C0200205A
:103F5800694B1B6813F1320F80F2A880674B05226A
:103F68001A70674B01221A7084EAE473A3EBE473B6
:103F7800322B40F3A180634B00221A60614B1A6810
:103F8800614B9A4201D9FFF765FC26460220FEF7ED
:103F980057F95E4C204600F03FFE002211462046AD
:103FA80000F00CFE5A495B4B1868FCF7A1FF044669
:103FB8005949FDF787F800287FF48DAD564920460A
:103FC800FDF79EF850B12046FCF78EFA3EA3D3E9E0
:103FD8000023FCF75DFD00287FF40EAE2046FCF7B9
:103FE80083FA8046894638A3D3E90023FCF764FDA9
:103FF80048B137A3D3E9002340464946FCF748FDBA
:1040080000287FF4FEAD32A3D3E900234046494699
:10401800FCF752FD48B130A3D3E900234046494696
:10402800FCF736FD00287FF4F1AD2BA3D3E900237C
:1040380040464946FCF740FD48B129A3D3E900238F
:1040480040464946FCF724FD00287FF4E4AD24A34C
:10405800D3E9002340464946FCF72EFD38B14FF01E
:1040680081412046FDF738F800287FF4D9AD4FF09C
:1040780081412046FDF744F848B11BA3D3E900234A
:1040880040464946FCF704FD00287FF4CEAD18A34E
:10409800D3E9002340464946FCF70EFD00283FF4CB
:1040A8001EAD1E49194800F099FD18E50023134A72
:1040B8001370134A137057E7124A136801331360D9
:1040C8005CE700BFAFF30080CDCCCCCCCCCC0C40AF
:1040D8009A99999999990D406666666666660E4042
:1040E8003333333333330F40666666666666104093
:1040F800CDCCCCCCCCCC1040F0030020600000200C
:1041080064000020D8030020007102003003002062
:10411800000020410800002000006040544F0008C3
:10412800774B02225A60774B1B68B3F57A7F5EDBC8
:104138002DE9F041744B1A68744BA3FB02139B09D9
:104148004FF47A7101FB13230BBB714C2068FCF709
:10415800CBF965A3D3E90023FCF71EFA06460F4600
:104168006C4B9889FCF7B8FD6B49FCF70DFEFCF722
:10417800BBF95FA3D3E90023FCF70EFA02460B460E
:1041880030463946FCF752F8FCF7A0FC2060614B3A
:104198005889624B1C68001BFCF794F956A3D3E9B5
:1041A8000023FCF7F9F900220023FCF767FC00283C
:1041B80052D1584B5889001BFCF784F94EA3D3E918
:1041C8000023FCF7E9F90022554BFCF775FC0028A1
:1041D80052D1544B1B68052B4ED8534B1B78002BE0
:1041E8004AD0524A536C43F40043536449E00133C4
:1041F800444A1360474A90884D490B68034403EBCF
:10420800D3735B100B60D0884A490B68034403EBF7
:10421800D3735B100B60108847490B68034403EBAA
:10422800D3735B100B60508844490B68034403EB5D
:10423800D3735B100B60508938490B68034403EB58
:10424800D3735B100B6011893D4A13680B4403EB71
:10425800D3735B10136070472E4B5889001BFCF713
:1042680031F925A3D3E90023FCF796F90022354B51
:10427800FCF704FC0028ACD02C4A536C23F4004310
:104288005364244B18892E4B1C68001BFCF71AF941
:1042980019A3D3E90023FCF77FF900220023FCF7D8
:1042A800EDFB002852D11B4B1889001BFCF70AF9BB
:1042B80011A3D3E90023FCF76FF90022184BFCF790
:1042C800FBFB002852D1174B1B68052B4ED8164B09
:1042D8001B78002B4AD01C4A536C43F400435364A8
:1042E80049E000BFAFF30080AE47E17A14AEEF3F7C
:1042F8007B14AE47E17A843F7B14AE47E17A943F62
:10430800000002407400002068000020D34D6210B5
:10431800080000209C0200201F9AD83C0C000020B6
:1043280000003940040000207000002000340140E3
:1043380014000020180000201C000020200000208D
:1043480010000020000039C0002C0140904B188953
:10435800001BFCF7B7F88CA3D3E90023FCF71CF982
:1043680000228C4BFCF78AFB0028ACD08A4A536C9D
:1043780023F40043536489498B6813F0200F0CBF62
:10438800012300238A6812F0400F0CBF012200228B
:10439800896811F0800F0CBF0125002580498868C5
:1043A80010F4806F0CBF012000208C6814F4006F9B
:1043B8000CBF01240024896811F4805F02EB4502D8
:1043C80003EB4203774EF35C77490B600B6803F10C
:1043D80002030B600D68754B83FB0572A2EBE57257
:1043E80002EB42024FEA4207A5EB07020A600CBF44
:1043F80002220022224400EB4202B05C6C4A1060A8
:10440800106802301060106883FB0043A3EBE07370
:1044180003EB43035C00031B136009685C48838853
:10442800644A12689A1AC388634800681B1A0529E7
:1044380034D8DFE801F0032326292C2FD31A5F4A4A
:1044480013605F4A1368013313605E4A14684CB303
:104458005D4AA2FB0312120B5C4909680131B2FBE9
:10446800F1F001FB1022EAB9B3FBF4F204FB1233BA
:10447800EBB910215648FDF71CFE18E04F4B1A60A7
:10448800DFE74E4B1A60DCE74C4A1360D9E74B4A2A
:104498001360D6E79B1A494A1360D2E7474B0022BC
:1044A8001A60CEE7002210214948FDF7FCFD494B70
:1044B800D3F800C03C4B1B68052B2BD8DFE803F072
:1044C8000312171C2226CCF1000064469C46424B7E
:1044D8001968374B1B68052B52D8DFE803F01F3FDC
:1044E80043474B4E6446CCF1000C0020EFE7604692
:1044F800CCF1000C0024EAE7CCF1000460464FF050
:10450800000CE4E7CCF100040020E0E7CCF1000067
:104518000024DCE7002004468446D8E74E420F46D4
:1045280019462C4B1B68002B40F398802B4B1D68B9
:104538001D4B1B6805331D4A82FB03E2A2EBE372A5
:1045480002EB42024FEA420EA3EB0E02052A00F2EA
:10455800B980DFE802F0456A6F74797E0F464942F8
:104568000026DEE70E4649420027DAE74F420E46AC
:104578000021D6E74F420026D3E74E420027D0E776
:10458800002637463146CCE77B14AE47E17A943FA4
:104598009C020020000039C0002C0140000C0140A2
:1045A80000100140884F000878000020ABAAAA2A12
:1045B8007C00002014000020180000206C0000205F
:1045C80068000020600000205917B7D1640000205F
:1045D800000801408000002084000020880000209E
:1045E800C5F10008AE461546654474444044964BF0
:1045F8001B68002B40F3D780944B1B68944A1268C1
:1046080002F1050C934A82FB0CE2A2EBEC7202EB7E
:1046180042024FEA420EACEB0E02052A00F2F98084
:10462800DFE802F058A8ADB2B7BCAE466D424FF015
:104638000008D9E7A8466D424FF0000ED4E7C5F14F
:10464800000EA8460025CFE7C5F1000E4FF0000880
:10465800CAE7C5F100084FF0000EC5E77E4B1D689C
:10466800C5F1000E7D4B1A6801327A4B83FB028339
:10467800A3EBE27303EB43034FEA4308A2EB0803FF
:10468800052B1AD8DFE803F00323060A0E14A84600
:104698001D46A9E7F0464FF0000EA5E7F046AE46E6
:1046A8000025A1E72B4675469E464FF000089BE77C
:1046B800A84675464FF0000E96E74FF00008C6462C
:1046C800454691E74FF00008C64645468CE74FF04F
:1046D800000889E7C3F100089E461346194407EB12
:1046E8000E0206EB080305F57A7540F2C676B54268
:1046F80000F397800A2DB8BF0A25594E756304F553
:104708007A7440F2C675AC4200F38E800A2CB8BFAA
:104718000A24534DAC6300F57A7040F2C674A04287
:1047280000F385800A28B8BF0A204D4CE06301F5E4
:104738007A7140F2C67081427CDC0A29B8BF0A212E
:104748004848416302F57A7240F2C6718A4274DCC5
:104758000A2AB8BF0A2243498A6303F57A7340F2EA
:10476800C67293426CDC0A2BB8BF0A233D4AD36356
:10477800BDE8F0819E465B424FF00008AEE79846E0
:104788005B424FF0000EA9E7C3F1000E98460023E4
:10479800A4E7C3F1000E4FF000089FE7C3F100083B
:1047A8004FF0000E9AE7294B1B68C3F1000E284A08
:1047B80012680132DFF89CC08CFB028CACEBE27C07
:1047C8000CEB4C0C4FEA4C08A2EB080CBCF1050FA3
:1047D8001AD8DFE80CF00323060A0E14984663463D
:1047E8007CE7F0464FF0000E78E7F0469E4600233F
:1047F80074E71A46734696464FF000086EE79846E7
:1048080073464FF0000E69E74FF00008C64643466E
:1048180064E74FF00008C64643465FE74FF00008DC
:104828005CE740F2C67568E740F2C67471E740F28B
:10483800C6707AE740F2C67182E740F2C6728AE72C
:1048480040F2C67392E700BF840000208C0000206D
:104858007C000020ABAAAA2A88000020780000204B
:1048680000340140002C0140014B23F81010704720
:104878006004002070477047FEE7FEE7FEE7FEE7AA
:1048880070477047704708B5FDF7CCFCFDF707FB8C
:1048980008BD037803F0070303700020704700B5D4
:1048A80085B0034604AA02F8011D10F8081B490048
:1048B8005B680093012341F04001FEF76FF918B9D6
:1048C800002005B05DF804FB0120FAE710B582B0BE
:1048D800034610F8084B64005B68009301230A46FE
:1048E80044F04001FEF71CFA10B9002002B010BDD8
:1048F8000120FBE708B5084B1B780BB1012008BD68
:1049080090F834104030FFF7CAFF18B10120024B6D
:104918001870F4E70020F2E79000002008B571B99C
:10492800836B53F82220012303FA02F290F8343003
:1049380023EA020380F83430FFF7DCFF08BD836BFD
:1049480053F82220012303FA02F290F8343013437B
:1049580080F83430F0E708B5072201F00101FFF7CD
:10496800DDFF08BD08B511F0010F34D0836B1A685C
:10497800012303FA02F290F83430134380F83430FC
:1049880011F0020F33D0836B5A68012303FA02F245
:1049980090F83430134380F8343011F0040F32D0DB
:1049A800836B9A68012303FA02F290F834301343B8
:1049B80080F8343011F0080F31D1836BDA680123A5
:1049C80003FA02F290F8343023EA020380F8343014
:1049D800FFF790FF08BD836B1A68012303FA02F200
:1049E80090F8343023EA020380F83430C8E7836B48
:1049F8005A68012303FA02F290F8343023EA0203DA
:104A080080F83430C9E7836B9A68012303FA02F20D
:104A180090F8343023EA020380F83430CAE7836B15
:104A2800DA68012303FA02F290F83430134380F86D
:104A38003430CDE7F0B583B004460D460622002198
:104A4800FFF76CFF042200212046FFF767FF0522CD
:104A580001212046FFF762FF062201212046FFF7C9
:104A68005DFF04F1400629463046FFF72FFFA36B90
:104A7800DA68012707FA02F22B7813402B70A26B31
:104A8800D26813412B70062200212046FFF746FF0B
:104A9800062239462046FFF741FF0DF1070130464F
:104AA800FFF714FF062200212046FFF737FF0522F3
:104AB80000212046FFF732FF002003B0F0BD30B5DB
:104AC80083B004460DF10701FFF7B4FFFDF7B2FB11
:104AD800054604E00DF107012046FFF7ABFF9DF8FE
:104AE8000730012B05D1FDF7A5FB401B636C9842ED
:104AF800F0D303B030BD000038B5184B1B780BB1AC
:104B0800012038BD0D46044606220021FFF706FFA6
:104B1800042200212046FFF701FF29092046FFF75C
:104B280021FF062201212046FFF7F8FE0622002178
:104B38002046FFF7F3FE29462046FFF713FF06221B
:104B480001212046FFF7EAFE062200212046FFF752
:104B5800E5FE2046FFF7B3FF0020D2E790000020D3
:104B680038B504460D4606220021FFF7D7FE042279
:104B780001212046FFF7D2FE29092046FFF7F2FE61
:104B8800062201212046FFF7C9FE06220021204601
:104B9800FFF7C4FE29462046FFF7E4FE062201215E
:104BA8002046FFF7BBFE062200212046FFF7B6FE8F
:104BB8002046FFF784FF002038BD000008B5064BEB
:104BC8001B7803B108BD9201D2B2114461F07F0194
:104BD800C9B2FFF791FFF5E7900000200D4B1B7855
:104BE800A3B9A1B170B50D460646002407E03046CA
:104BF800FFF765FF295D3046FFF7B2FF01344F2C00
:104C080002DC2B5D002BF2D1002070BD7047002024
:104C1800704700BF9000002008B5044B1B7803B113
:104C280008BD0121FFF768FFFAE700BF90000020E8
:104C380008B50123437083785B0043F00C0303F04D
:104C4800FE03C1781943FFF757FF08BD124B1B78C5
:104C58000BBB70B58AB08DF82430012A01D909AE92
:104C680007E00A22FBE73733DBB206F8013D2146AD
:104C780064B1B1FBF2F4CBB204FB02F5EDB25B1BFD
:104C8800DBB2092BEFD83033DBB2EEE73146FFF762
:104C9800A5FF0AB070BD70479000002008B5490014
:104CA80041F00401C9B21143FFF726FF08BD000017
:104CB800012343700023C370837090F83C300BB11C
:104CC8000120704710B50446464B83634030FFF718
:104CD800E0FD08B1012010BD3220FDF7B1FA042231
:104CE80000212046FFF71AFE052200212046FFF783
:104CF80015FE062200212046FFF710FE032120465C
:104D0800FFF730FE062201212046FFF707FE0120AB
:104D1800FDF796FA062200212046FFF7FFFD052041
:104D2800FDF78EFA03212046FFF71CFE062201211B
:104D38002046FFF7F3FD0120FDF782FA0622002145
:104D48002046FFF7EBFD0120FDF77AFA0321204604
:104D5800FFF708FE062201212046FFF7DFFD0120AC
:104D6800FDF76EFA062200212046FFF7D7FD012045
:104D7800FDF766FA02212046FFF7F4FD062201211D
:104D88002046FFF7CBFD0120FDF75AFA0622002145
:104D98002046FFF7C3FD0120FDF752FA2178C9002C
:104DA800C9B241F020012046FFF7A6FEA3785B00B8
:104DB80043F0080303F0FE03E17819432046FFF7A8
:104DC8009BFE2046FFF728FF002201212046FFF71F
:104DD80065FF2046FFF72CFF01212046FFF7BBFDAA
:104DE800002078E724000020002103E00B4B5B58EB
:104DF800435004310A480B4B42189A42F6D30A4AE8
:104E080002E0002342F8043B084B9A42F9D3FEF72C
:104E180051F900F00FF8FEF79BFD7047984F000816
:104E280000000020440000204400002070040020FE
:104E3800FEE7000070B500250C4E0D4CA41BA41015
:104E4800A54209D100F026F800250A4E0A4CA41BF9
:104E5800A410A54205D170BD56F8253098470135F4
:104E6800EEE756F8253098470135F2E7904F0008ED
:104E7800904F0008904F0008944F000810B5431E4B
:104E88000A44914200D110BD11F8014B03F8014FBB
:104E9800F7E70000F8B500BFF8BC08BC9E467047AD
:0C4EA800F8B500BFF8BC08BC9E4670477F
:104EB40002030405060708090A0B0C0D0E0F101057
:104EC40001020000000000000000000001020304D1
:104ED4000607080900000000010203044765742066
:104EE400526561647921000057616974696E6720B5
:104EF400746F2061726D0000424154544552592030
:104F0400454D505459000000426174746572792013
:104F140030250000426174746572792032302500B6
:104F2400426174746572792034302500426174746E
:104F34006572792036302500426174746572792077
:104F44003830250042617474657279203930250047
:104F5400426174746572792031303025000000009C
:104F6400560000005370656564000000506F77655B
:104F740072206F6666000000476F6F646279652176
:0C4F840000000000000002010405030012
:044F90000D02000806
:044F9400E901000827
:104F980000A24A046400000000002042D00700007C
:104FA800D0070000D0070000D0070000D00700009D
:104FB800D007000004000000050000000600000003
:104FC80007000000000000000100000002000000CF
:044FD80003000000D2
:0400000508004DF1B1
:00000001FF
